:020000040000fa
:080000000002040000000000f2
:020000040000fa
:04000800ac02000046
:020000040000fa
:04000c00ac02000042
:020000040000fa
:04001000ac0200003e
:020000040000fa
:04001400ac0200003a
:020000040000fa
:04001800ac02000036
:020000040000fa
:04001c00ac02000032
:020000040000fa
:04002000ac0200002e
:020000040000fa
:04002400ac0200002a
:020000040000fa
:04002800ac02000026
:020000040000fa
:04002c00ac02000022
:020000040000fa
:04003000ac0200001e
:020000040000fa
:04003400ac0200001a
:020000040000fa
:04003800ac02000016
:020000040000fa
:04003c00ac02000012
:020000040000fa
:04004000ac0200000e
:020000040000fa
:04004400ac0200000a
:020000040000fa
:04004800ac02000006
:020000040000fa
:04004c00ac02000002
:020000040000fa
:04005000ac020000fe
:020000040000fa
:04005400ea2300009b
:020000040000fa
:04005800ac020000f6
:020000040000fa
:04005c00ac020000f2
:020000040000fa
:04006000ac020000ee
:020000040000fa
:04006400ac020000ea
:020000040000fa
:04006800ac020000e6
:020000040000fa
:04006c00ac020000e2
:020000040000fa
:04007000ac020000de
:020000040000fa
:04007400ac020000da
:020000040000fa
:04007800ac020000d6
:020000040000fa
:04007c00ac020000d2
:020000040000fa
:04008000ac020000ce
:020000040000fa
:04008400ac020000ca
:020000040000fa
:04008800ac020000c6
:020000040000fa
:04008c00ac020000c2
:020000040000fa
:04009000ac020000be
:020000040000fa
:04009400ac020000ba
:020000040000fa
:04009800ac020000b6
:020000040000fa
:04009c00ac020000b2
:020000040000fa
:0400a0001224000026
:020000040000fa
:0400a400ac020000aa
:020000040000fa
:0400a800ac020000a6
:020000040000fa
:0400ac00ac020000a2
:020000040000fa
:0400b000ac0200009e
:020000040000fa
:0400b400ac0200009a
:020000040000fa
:0400b800ac02000096
:020000040000fa
:0400bc00ac02000092
:020000040000fa
:0400c000ac0200008e
:020000040000fa
:0400c400ac0200008a
:020000040000fa
:0400c800ac02000086
:020000040000fa
:0400cc00ac02000082
:020000040000fa
:0400d000ac0200007e
:020000040000fa
:0400d400ac0200007a
:020000040000fa
:0400d800ac02000076
:020000040000fa
:0400dc00ac02000072
:020000040000fa
:0400e000ac0200006e
:020000040000fa
:0400e400ac0200006a
:020000040000fa
:0400e800ac02000066
:020000040000fa
:0400ec00ac02000062
:020000040000fa
:0400f000ac0200005e
:020000040000fa
:0400f400ac0200005a
:020000040000fa
:0400f800ac02000056
:020000040000fa
:0400fc00ac02000052
:020000040000fa
:04010000ac0200004d
:020000040000fa
:04010400ac02000049
:020000040000fa
:04010800ac02000045
:020000040000fa
:04010c00ac02000041
:020000040000fa
:04011000ac0200003d
:020000040000fa
:04011400ac02000039
:020000040000fa
:04011800ac02000035
:020000040000fa
:04011c00ac02000031
:020000040000fa
:04012000ac0200002d
:020000040000fa
:04012400ac02000029
:020000040000fa
:04012800ac02000025
:020000040000fa
:04012c00ac02000021
:020000040000fa
:04013000ac0200001d
:020000040000fa
:04013400ac02000019
:020000040000fa
:04013800ac02000015
:020000040000fa
:04013c00ac02000011
:020000040000fa
:04014000ac0200000d
:020000040000fa
:04014400ac02000009
:020000040000fa
:04014800ac02000005
:020000040000fa
:04014c00ac02000001
:020000040000fa
:04015000ac020000fd
:020000040000fa
:04015400ac020000f9
:020000040000fa
:04015800ac020000f5
:020000040000fa
:04015c00ac020000f1
:020000040000fa
:04020800ac02000044
:020000040000fa
:04020c00ac02000040
:020000040000fa
:04021000ac0200003c
:020000040000fa
:04021400ac02000038
:020000040000fa
:04021800ac02000034
:020000040000fa
:04021c00ac02000030
:020000040000fa
:04022000ac0200002c
:020000040000fa
:04022400ac02000028
:020000040000fa
:04022800ac02000024
:020000040000fa
:04022c00ac02000020
:020000040000fa
:04023000ac0200001c
:020000040000fa
:04023400ac02000018
:020000040000fa
:04023800ac02000014
:020000040000fa
:04023c00ac02000010
:020000040000fa
:04024000ac0200000c
:020000040000fa
:04024400ac02000008
:020000040000fa
:04024800ac02000004
:020000040000fa
:04024c00ac02000000
:020000040000fa
:04025000ac020000fc
:020000040000fa
:04025400ac020000f8
:020000040000fa
:04025800ac020000f4
:020000040000fa
:04025c00ac020000f0
:020000040000fa
:04026000ac020000ec
:020000040000fa
:04026400ac020000e8
:020000040000fa
:04026800ac020000e4
:020000040000fa
:04026c00ac020000e0
:020000040000fa
:04027000ac020000dc
:020000040000fa
:04027400ac020000d8
:020000040000fa
:04027800ac020000d4
:020000040000fa
:04027c00ac020000d0
:020000040000fa
:04028000ac020000cc
:020000040000fa
:04028400ac020000c8
:020000040000fa
:04028800ac020000c4
:020000040000fa
:04028c00ac020000c0
:020000040000fa
:04029000ac020000bc
:020000040000fa
:04029400ac020000b8
:020000040000fa
:04029800ac020000b4
:020000040000fa
:04029c00ac020000b0
:020000040000fa
:0402a000ac020000ac
:020000040000fa
:0402a400ac020000a8
:020000040000fa
:0402a800ac020000a4
:020000040000fa
:0402ac00ac020000a0
:020000040000fa
:0402b000ac0200009c
:020000040000fa
:0402b400ac02000098
:020000040000fa
:0402b800ac02000094
:020000040000fa
:0402bc00ac02000090
:020000040000fa
:0402c000ac0200008c
:020000040000fa
:0402c400ac02000088
:020000040000fa
:0402c800ac02000084
:020000040000fa
:0402cc00ac02000080
:020000040000fa
:0402d000ac0200007c
:020000040000fa
:0402d400ac02000078
:020000040000fa
:0402d800ac02000074
:020000040000fa
:0402dc00ac02000070
:020000040000fa
:0402e000ac0200006c
:020000040000fa
:0402e400ac02000068
:020000040000fa
:0402e800ac02000064
:020000040000fa
:0402ec00ac02000060
:020000040000fa
:0402f000ac0200005c
:020000040000fa
:0402f400ac02000058
:020000040000fa
:0402f800ac02000054
:020000040000fa
:0402fc00ac02000050
:020000040000fa
:04030000ac0200004b
:020000040000fa
:04030400ac02000047
:020000040000fa
:04030800ac02000043
:020000040000fa
:04030c00ac0200003f
:020000040000fa
:04031000ac0200003b
:020000040000fa
:04031400ac02000037
:020000040000fa
:04031800ac02000033
:020000040000fa
:04031c00ac0200002f
:020000040000fa
:04032000ac0200002b
:020000040000fa
:04032400ac02000027
:020000040000fa
:04032800ac02000023
:020000040000fa
:04032c00ac0200001f
:020000040000fa
:04033000ac0200001b
:020000040000fa
:04033400ac02000017
:020000040000fa
:04033800ac02000013
:020000040000fa
:04033c00ac0200000f
:020000040000fa
:04034000ac0200000b
:020000040000fa
:04034400ac02000007
:020000040000fa
:04034800ac02000003
:020000040000fa
:04034c00ac020000ff
:020000040000fa
:04035000ac020000fb
:020000040000fa
:04035400ac020000f7
:020000040000fa
:04035800ac020000f3
:020000040000fa
:04035c00ac020000ef
:020000040000fa
:100400008f9920000edf20000e0188000000000000
:10041000000020000000e000020032000001200087
:10042000200288000c000700804e220001002000fe
:1004300011000700000020000000e0000200320070
:100440000000020000000000642302000000000021
:100450000040da000000fe004440a90080042000b3
:100460000000e0000300320000002000a00188002e
:100470004440a80000000600910188008000780038
:100480000000eb0015003700e280400032a0b4000d
:100490009101ba00e280400032a0b4009102ba009b
:1004a000e280400032a0b4000002eb00472bde00e7
:1004b000f507b200602ce10004003a000059eb009f
:1004c0008301e900fdff3e00040037006128e100e0
:1004d000010032000082eb000b00070011c3ba00dc
:1004e0001101ba000604e00003003a000200e00037
:1004f000e5ff3a0000000600f607b200960188000a
:1005000082007800f5ff37003159ba008301e90015
:100510000c0032002159ba008301e90008003200c2
:100520000400e00003003a00e280400032a0b40082
:10053000f5ff370011d9ba008301e900faff3a004c
:100540008100e800e180400032a0b4000000060015
:1005500000000000000000000040da000000fe0083
:1005600003f0a200889fbe008a9fbe008c1f780007
:10057000050107000c0133006450e1004f00320018
:100580006420e1005200320003826c0007003b004f
:100590000905d0000306d000820f54000c065d0050
:1005a0000200390002003200890178000306780059
:1005b0008582550004003d000003fd008103fd001d
:1005c0008502ea008b854200840f720002003b0026
:1005d00060001000e08018006011b8000005eb001a
:1005e0007a28e1000a00390006007800c75ddd00c6
:1005f000f707b200878075002d00370082817100f7
:100600000a017800610560008180d1000080d3007c
:100610008502e900f9ff3b0006044000878448009a
:1006200002003b0060041400e0841c000988a30061
:10063000070032008a8171008281710061016400cb
:100640008904d1000884d3008b05e8001700370027
:100650000978a30013003a000b00e00013003400f7
:100660008b05e9000804440089844c000a447400a6
:100670000978a3000d003a000b00e00007003400e9
:100680008b05e9000804440089844c0001003a000d
:100690000b0020000978a300f7ff32000001eb00f7
:1006a00002003700828171000a0178007b00070098
:1006b0000cf0a70001f0a000c40037006420e100a6
:1006c00002003a00838f6c00c40033000801be00b2
:1006d0000200be00bd003700889fbe008a9fbe009a
:1006e0008c1f7800a8000700af00330003866c0061
:1006f0006450e1002e0032006420e100330032003b
:100700006150e1002f0032006120e1003100320031
:1007100085855500eb07b000090020000804200083
:10072000050037000804440089844c000a003100a9
:100730000603430087834b000001530081815b0067
:10074000f8ff33000203be000800a00008044400c4
:1007500089844c00f6ff3900c639dd00830173003f
:1007600001003200130020008904d1000884d30066
:100770000998a300050032000800a7000300a000ac
:100780008904d1000884d3008b05e8008904d100d6
:100790000884d3000001eb000281d2003f00070073
:1007a00001f0a1000cf0a70001f0a00087003700c5
:1007b0006420e100890032000801be000200be0092
:1007c000f7ff37006120e100840032006000b800cc
:1007d000f3ff37000000200001f82700f0ff37008a
:1007e000839f68000100e00002003d0060001000ef
:1007f000e08018000300e00002003d0060011100ed
:10080000e0811900ac0007004f00e00002003b004f
:1008100060001000e0801800000006000001be002b
:10082000440007000470a70003f0a10003f8a30030
:1008300013003a006509b1001000320009003500cc
:100840006928e100020035000100280000000500d1
:1008500000004000818048008502e900fcff3a006a
:1008600000000600f88f4200050035008100d1002d
:100870000080d3008502e800fcff3a00000006007b
:100880008000eb00000005004f89de008201780047
:10089000990037006011b800a700370081002000e0
:1008a000618055000b003d000b00200061fe2f0011
:1008b0000100e1001d0034008281710061016400cb
:1008c0008904d1000884d3000000e800faff3a0050
:1008d00071002000610064000300700002006000ed
:1008e0000900320061044400e0844c000988a5003e
:1008f000050032008b05e8006808e10002003a00bc
:100900008904d1000884d300f20f20000258e100ce
:1009100005003d00c75ddd00f907b2008980750064
:1009200008007800000006000bf827008b00780014
:1009300000000500c70ade00f107b200f50fb200a3
:1009400008003200e1cf4200020032000170a00036
:1009500024000500810f700001003200040805002a
:1009600044000500810f700002003a0014000500e9
:100970008502e9000000400081c04800fcff3b0008
:100980000170a000240005000004be00e9ff07007c
:100990000003be000405be000200be00e5ff070024
:1009a000844f7500000006000200be006450e100a4
:1009b000050036006420e100020036000968a3004b
:1009c00001003a000800be000160a0004f06780058
:1009d0004f05be004f04be0000000600f0ff2f00d0
:1009e000f1ff2700f9ff3700889fbe008a9fbe00f5
:1009f0008c1f7800e4ff0700ebff330003866c00d8
:100a00006450e100240032006420e100270032003d
:100a10006150e100220032006120e100210032003b
:100a20008b854200eb07b1000134b800003ab800f2
:100a30000804420089844a00013ab8000030b80036
:100a40008880400009014a00040033000000400093
:100a500081804800020149008b05e900c909dd00d9
:100a6000830170000100320013002000c814de0072
:100a70004814dd004709de001200b200c808de009d
:100a80000884700085ff070001f0a1000cf0a700aa
:100a900001f0a000cdff37006120e100cfff320060
:100aa0000801be000200be00f7ff37006150e10000
:100ab000fcff3a00c9ff37006022b80006022000a0
:100ac0000000d0008180d2000482d2008582d20052
:100ad0000000a0000202520083825a00030031008d
:100ae0000202420083824a000000a1000603e900de
:100af000f3ff3a0000000600881f78000304780026
:100b00000300e00007003d0060001000e0801800d6
:100b100060011900e081190002003b0001f02d0086
:100b2000030037000400070008f0a70001f0a00050
:100b30004f04780000000600889fbe008a9fbe0018
:100b400000827000040271000482710026003200ed
:100b50000004be000200be006011b8006b09200056
:100b6000950220000182cf000a0039000541b10042
:100b70000082cf00070039000541b1000982cf0093
:100b8000040039000541b1000882cf00010039009e
:100b90000541b10005425200120032000a003b003c
:100ba00082817100610164008100d1000080d30066
:100bb0008984d3000884d3008b05e8000442e80050
:100bc000f7ff3a00070037000804440089844c000e
:100bd00000004800818048008b05e9000442e900dc
:100be000f9ff3a002dff07004f05be004f04be007d
:100bf00000000600881f78000204780008017800d1
:100c00007f040700080040004f0478000000060041
:100c10000000fa00881f780000047800ea8157007d
:100c20003fb9970088007800a05f20000700070008
:100c30000000e000020035008040eb000174780005
:100c40004f0478000080fa00000006006200fa00fd
:100c5000889fbe008a1f7800000578008104780014
:100c6000020478008300780080f92f000f00400014
:100c7000910607009a979f00a9979f000000eb003c
:100c8000b09f9f001885fb008a04fb000a05ea005c
:100c90004f55de0050022000808f54000d003200be
:100ca000e10f55000b003a000a0178008800780037
:100cb0002f9097009f91970003000100a0979f003d
:100cc0000000e0008e0032003f9897000000e8002e
:100cd000b09f9f000a04440050022000808f5400ff
:100ce000040032000900e000e6ff3a003f98970058
:100cf000840037000000eb00909f9f00809f9f00c2
:100d0000f0979f00e0979f00d0979f00c0979f00ab
:100d1000070037000199200001005000000040004a
:100d20004198200061007800df9897000100700072
:100d3000d09f9f0088047800090478003845780027
:100d40008a00fb0000992000340407000000e00046
:100d5000f0ff3a00a1c2b300814f55000e003a00e7
:100d6000cf8897000180e900c08f9f0010007800b5
:100d7000c09f9f000000e00005003d000000ea0069
:100d8000c09f9f005f9897000020a000d09f9f0009
:100d90000904e8000f003700c09f9f000000eb002f
:100da00005003700f2ff2700820f500002003200da
:100db0006a01b900028040000904780088047800c4
:100dc000b900fb000103b100e98f5000f5ff3600c8
:100dd000c09f9f00e0c2b300984f10000200320095
:100de0000080eb0019003700a0c2b300d84f1000fc
:100df00007003a00cf8897000180e900c08f9f006c
:100e000010007800a09f9f000804e8001000370041
:100e10000000eb00a09f9f008800780005003700cd
:100e2000f3ff2700830f5000020032006a02b9006e
:100e30000400410001047800880078003101fb00c3
:100e40000203b100e90f5100f5ff3600a09f9f009b
:100e5000984478008900fb00c0972000ef0307004a
:100e60000000e000020032000804e8000100370042
:100e70008044eb00c97f9f0080c6b30080cf540040
:100e800004003a0098cf14000a003a00664050006f
:100e900006003700c0c6b30080cf540005003a00fa
:100ea00098cf140003003a0065404000c07f9f00c7
:100eb0000804e8001801fb00e3fb2f008f814100cc
:100ec00081f92f008f804000a0f92f000f00400013
:100ed000100007000000e00009003a00e1fb2f00cd
:100ee0008f804000a0f92f000f004000360507005a
:100ef0000000e000020035000804e80061ff370050
:100f00000080eb004f0578004f04be000080fa001f
:100f100000000600889fbe008a1f78000004780049
:100f2000824478000305780070c6b30080cf540077
:100f300021003c0000c0e90080cf5400cd003d00fe
:100f40007240500080cf5400340132000d003c004c
:100f50006c40500080cf540047013c0000c0e900c5
:100f600080cf5400c3003d0050c2b30080cf540076
:100f70003e0132007c40400080cf54003e013a00e8
:100f8000bc00370010c6b30080cf5400b900320057
:100f900004003c006940500080cf540036013a0004
:100fa0006600370030c6b30080cf5400180032000e
:100fb0000040e8000900370000c7b30080cf5400ac
:100fc0000801320008003c0000c0e90080cf540056
:100fd000d100320059003c006540500080cf5400e1
:100fe00025013a000f00370050c7b30080cf5400ee
:100ff000520032006340400080cf54004f00320066
:101000006540500080cf54001b013a0003013700b7
:101010001181e9008208780078009000127578004c
:101020001b01370028609000c2c6b300824f5000f9
:1010300007003a0011017800640051008008780030
:101040001000be004f89de008201780011003700d9
:1010500012c7b300824f500003003200a2c6b30093
:10106000824f500006003a001101780068005100dc
:10107000800878005001be004000be000500370027
:101080001180e9008008780010007800cf80de0031
:101090006109b900009cbe000294be002862900065
:1010a00085c6b300854f52000d00320025c6b3003f
:1010b000854f520004003a000000fb00cf80de00a4
:1010c0006109b9000800370045c7b300854f5200d9
:1010d00003003200e6c24200854f520004003a008d
:1010e000cf80de006109b900009cbe000294be0002
:1010f0003802be002803be0078009000d1c2b300c1
:10110000e00f5200e08f5a00e00f5b00e08f5b00c1
:1011100008003500881090000118a300020032007a
:10112000b1c2b300030037000108a3004c00320035
:1011300001c2b300017578004700370028609000b5
:10114000c2c6b300824f500006003a001101780079
:1011500064005100800878001000be006011b800e3
:101160001100370012c7b300824f50000300320055
:10117000a2c6b300824f500006003a001101780069
:1011800068005100800878005001be004000be0099
:10119000050037001180e900800878001000780011
:1011a0008000eb006011b800009cbe000294be00fd
:1011b0002862900085c6b300854f52000d003200b2
:1011c00025c6b300854f520004003a000080fb00a2
:1011d0008000eb006011b8000800370045c7b3007d
:1011e000854f520003003200e6c24200854f520094
:1011f00004003a008000eb006011b800009cbe00c3
:101200000294be00081090000038a30014003200c1
:101210003800be002801be00e00f5000e08f5800eb
:10122000e00f5900e08f59000d00320080c7b30075
:1012300080cf54000300320080c5b30080cf54003b
:1012400007003a007800900001c3b30001757800f0
:101250000000e800097578000000e80070049800bc
:1012600078009000000545006a04980089407800e5
:101270006700370028619000c0c4b300804f510060
:1012800006003a00110178006800510080087800db
:101290005001be004000be0005003700110178007b
:1012a00064005100800878001000be00f9050700b6
:1012b000009cbe000294be00b80090007800900030
:1012c0000100e00002003d00d1c2b3000800370079
:1012d000881090000118a30002003200b1c2b300d0
:1012e000030037000108a3000400320001c2b3006c
:1012f000017578000000e800700498007800900004
:10130000000545006a0498008900fb000800780089
:10131000650007006000370028619000c3c6b30075
:101320001180e900834f5100220032000a003c0086
:10133000e4c15100834f51002500320083c1e80011
:10134000834f510013003200e8c15100834f510018
:101350001e003a000a00370043c7b300834f510014
:101360001b003200e6c14100834f510018003200db
:10137000e9c15100834f510014003a0005003700c5
:101380008008780010007800485c900008487800d9
:10139000410037008008780010007800680a90004b
:1013a000cfa2de00612bb9000498be000690be00fb
:1013b0003900370080087800100078006809900034
:1013c000cf91de000288be00330037001180e900b3
:1013d0008008780010007800680c900008087800f9
:1013e0002d0037001180e900800878001000780097
:1013f000cf80de006109b900009cbe000294be00ef
:1014000078009000000545006a04980081c7b30089
:1014100008007800bd0207001f0037001180e900b6
:1014200080087800100578006a049800d80c9000b5
:101430000900e00004003d000a0078008302070074
:101440008004780007003700090178008000eb0075
:101450000a007800600207000000e000010032008e
:101460008a045000190c98000b0037007800900097
:1014700009757800060037007800900000054500e7
:101480000904e00001003a0059c2b300094d780098
:101490000000e800700498000000eb004f057800a1
:1014a0004f04be00000006002f04b000889fbe005d
:1014b0008a9fbe008c9fbe008e1f780000077800b8
:1014c00081f79f003e04be002e05be005e0890001e
:1014d0000000e00002003d0060002000500f980076
:1014e0008e00780020fb2f000f0040005d020700f7
:1014f000e20f50000a003a0030002000100f980060
:10150000b1c9b3000ff09700814040006090200007
:10151000e1cf50000d003e00209020000b0037006e
:101520000000e0000f00340030002000100f980091
:10153000b1c9b3000ff1970081404100e090200055
:10154000e1cf500001003e00a0902000ee0090008e
:10155000b0487800b068780010407800904098005b
:10156000f30037000000e00005003a0022fb2f00e6
:101570000f014100001978008001eb00e7003700ff
:101580006022b8006033b8000800be000a01be0047
:10159000970407000000e00001003d000bf0a200ee
:1015a000705927009f9897000088b900026a2800a8
:1015b000130020008afc0700640650009c9f9f00d7
:1015c00013003b0063061600c0ff2f0000066600f4
:1015d0008c01ea00939f9f002d9120000800be001f
:1015e0000a01be00070037000c08a3000300320008
:1015f0003d02be002d03be00740507000c86d1001d
:10160000e88646000c00e000f7ff3c0018003700b9
:101610000c00e00018003200c0ff2f00000666003a
:101620009c9f9f002d9120006000b80002002000c8
:1016300003ff2300070037000c08a300030032005b
:101640003d02be002d03be00600507000c86d100e0
:10165000e88646000c00e000f7ff3c000002be00f8
:101660000203be000800be000a01be006a040700b3
:101670000004be000205be00de08900060c6b30094
:101680000ff29700804f52000400320060002000eb
:1016900062c4b300824f520002003a009f9a970042
:1016a0006a80420081004000f1b79f00010378008a
:1016b000f30f53000200340037012000f7b79f00fa
:1016c00000c3b300c0779f0056fb2f000f034300f9
:1016d0000e007800a0b79f00060778003d00370095
:1016e0000800be000a01be00090507000006be0092
:1016f0007fb1970068015100f2b79f004240a900f6
:101700000c0034002e0507000002be000203be00dc
:101710000800be000a01be00a10507006022b80053
:1017200046782d0077192400280507000004be0024
:101730000205be00e80047008e0020000802be003f
:101740000a03be00b4b79f00c5b79f00d6b79f007d
:10175000e7b79f000c01be00010478000c003700c1
:10176000a400200005002000c0fd2f000f00400055
:10177000840107006fa89700ffa897000fb197009a
:101780009fb1970005c3b300056441000001be008e
:10179000e00f5100e08f5900030034000e07e9000c
:1017a000e10f4700eeff3a00880078003fb4970051
:1017b000cfb497005fb59700efb5970002003700f0
:1017c00000c3b300806078000e07e900fcff3b0017
:1017d000688740007fb397000600e00007003400f0
:1017e0006022b8006033b8000800be000a01be00e5
:1017f000040407000000e000b9ff3c000e0378007d
:101800002fb7970051fb2f008f804000010353003a
:101810009f9b970067804300909f9f0002003700c6
:101820000603e9000000e900010178008200780069
:1018300003c3b300b1cf1100f9ff3200909f9f00a6
:10184000de09900061c6b3000ff29700814f52008d
:101850000300320061c4b300814f520002003a001d
:101860000000e8000a0037001000200051c6b30055
:101870008ff2970081cf52000500320005407800ba
:1018800050c4b2000080fb000000e9004f00de0001
:1018900083014000868f51000100340086017800ea
:1018a0000300e0001d00350000c3b300868f510027
:1018b00006003d0062c279006940400041c3b300a8
:1018c000814f520001003c00694050008300e90054
:1018d0008100410001003700840178000302e90023
:1018e00001037800a142780080cf5200faff320055
:1018f00091c3b300814f500001003a00054be8004e
:101900000400e00005003d000201e9008301e80059
:101910001f9b97000603e800969f9f008ff3970098
:101920008700fb001f9a97000e0078000600070052
:101930004f0778004f06be004f05be004f04be00a3
:101940002f04b10000000600f0874700889fbe000a
:101950008a9fbe008c9fbe008e1f78000004780016
:10196000814478000205be00040678000b00e00008
:1019700002003c001b0020006a99200060c6b300f2
:1019800080cf54000e00320060c4b30080cf5400fa
:101990000b00320070c6b30080cf54000300320049
:1019a00070c4b30080cf540081003a00e40f4600b9
:1019b0007f00350058089000800f56007c003d00e5
:1019c0000c06e80060c6b30080cf5400100032005f
:1019d00060c4b30080cf54000d00320008109000a6
:1019e0000038a30004003a0058089000808f55008a
:1019f00001003d005b0c9800580890000c0050005e
:101a0000500c980002003b000000eb00500c9800c6
:101a100018089000e80090000c00e00026003c0050
:101a200002c3b300827078000000e800100c980038
:101a3000d80890000100e00003003c0088109000ee
:101a40000138a30005003200e8009000e2c2b300b4
:101a5000827078000000e800100c98005808900090
:101a60008c00ea00810f500001003d000006ea00f2
:101a70008c00ea00210c9800000646005c0c9800df
:101a80008b0f5600010034000b0678003c0c9800c8
:101a9000e800900018089000008040000c017800d9
:101aa0008a007800d6000700580890000c06500005
:101ab0004c0c9800900037008c8f550018003d00aa
:101ac000008040000b0178008a007800cc000700fd
:101ad0001808900000804500100c98008b055600f7
:101ae0002b0c9800d80890000100e00003003c0097
:101af000881090000138a30006003200e800900032
:101b0000e2c2b30082707800380890000000e8005c
:101b1000300c980058089000400c98007600370070
:101b2000008040000c0178008a007800b4000700b3
:101b30001808900000004600100c98008c85550095
:101b4000d80890000100e00003003c0088109000dd
:101b50000138a30005003200e8009000e2c2b300a3
:101b6000827078000000e800100c9800580890007f
:101b7000808f55000100340080057800e800900057
:101b800018089000008040008c0045000b01780090
:101b90009b000700180890000b004000100c9800f4
:101ba000580890008b0550002b0c9800520037000d
:101bb00018089000e80090009a7078000000e80093
:101bc000100c9800d80890000100e00003003c00d1
:101bd000881090000138a30005003200e800900052
:101be000e2c2b300827078000000e800100c980098
:101bf000580890000000e000100034008b05e90058
:101c0000808f55000100340080057800e8009000c6
:101c100018089000008040008a00e8000b0178005e
:101c200077000700180890000b004000100c980087
:101c3000580890008b0550002b0c9800e80090008d
:101c40001808900000804000095878000007e8005c
:101c50000c00e00004003500b1c2b3000148780078
:101c60008e04780004003700d1c2b3000148780028
:101c70008e0478000c06ea007d8557008006eb0094
:101c800009003700a20020008c0078007280570005
:101c9000310007007fb097008fb89700016d780082
:101ca000000678008d06e8000c00e000f5ff3c001f
:101cb0000d00e00009003a008e04780000c3b30074
:101cc000805c7800050037008d06e900fc80570035
:101cd00061c07e0002c3b300825c40000d00e000e2
:101ce000f9ff3c00e80090001808900000804000d8
:101cf00080845400390c9800081090007400600033
:101d0000f00f50000e003a00980890007800900004
:101d100000804000a808900001004000b808900032
:101d200001004000c808900001004000f808900041
:101d3000810f500002003d0000805000000c980010
:101d40004f0778004f06be004f05be004f04be008f
:101d50000f01b10000000600800278000103780046
:101d6000110009000203d80080017800830a78007e
:101d70000299b90002015300920298000500780010
:101d800000000600881f78008a9fbe008c9fbe005e
:101d9000000478000205be000406be000401be0077
:101da0000a00be008efa0700008cbe000c01be00c7
:101db000000407000005550081855d002a04980095
:101dc0003b049800080078004f06be004f05be0097
:101dd0004f0478000000060003003700b0cf100069
:101de000050032000201e900800178000200e000f5
:101df000faff3a000000050003007800000006002a
:101e00008001780002003700b15978000201e90032
:101e10000200e000fcff3a0000000600020037006c
:101e20000304e000060032000001780002007800a0
:101e3000b041780081cf5100f9ff3a00010037002e
:101e40000001eb000200780000000600800078002e
:101e5000010178003104e000fdff3a00000051006c
:101e600000000600889fbe0000047800e684400061
:101e70001900d0004500de00f27f2000820f5000e4
:101e800010003a00000ceb00990478006f816400a8
:101e9000200020001b003a00210190000200e00019
:101ea00018003a00110190000200e00015003a000d
:101eb000100020001100e00012003200200020007d
:101ec000100037000000e00004003a000100780034
:101ed000fb0107000000e00008003c00f2002800c1
:101ee0001901610001fe2300810c710021c02f0047
:101ef000010c40000080eb0002003700000ceb00fa
:101f00000000eb004f04be0000000600fc87470005
:101f1000889fbe008a9fbe008c9fbe008e1f7800e7
:101f20000006780080c5b30080cf50000a00320060
:101f30007740400080cf50000a00320069404000e6
:101f400080cf50000b003200b096200080bf9f0071
:101f5000ae0020000a003700a295200082bf9f003b
:101f600006003700b396200083bf9f008e0020003c
:101f700003003700b496200084bf9f000e012000ac
:101f80003c02be002c03be000605be000404be00d9
:101f900040c6b30080cf50000300320065404000cf
:101fa00080cf50000b003a00e00f5200e08f5a0043
:101fb000e00f5b00e08f5b0006003d006000b800b2
:101fc0006011b800040450008584580006055900cb
:101fd00087855900e80f57000400320040002000b8
:101fe000f00f570038003a000100370030002000a1
:101ff000e00f5400e08f5c00e00f5d00e08f5d00bb
:1020000004003a00dc0890008d0120000100e0008f
:10201000060032008e00e900888060008fba9700c9
:10202000e5c07800f1ef9f007d012000800078007e
:102030008100e900050033008b05d1000a85d3003b
:102040008984d3000884d300f9ff3700089ebe00be
:102050000a96be00120037008d06e9008e00e900e6
:10206000848060000fb99700e2c1780082fd2f00e4
:102070000f01410003f17e00800078008100e9003b
:10208000050033008783d1000683d3008582d30007
:102090000482d300f9ff3700049ebe000696be00fe
:1020a0003c02be002c03be00e00f5200e08f5a003d
:1020b000e00f5b00e08f5b008b0034000d00e00060
:1020c000e5ff3c00880037002c60900081c6b3001b
:1020d000814f50000b00320006003c000004e0007d
:1020e00008003200e6c05000814f50004e003a0018
:1020f00004003700c1c6b300814f50004a003a00c7
:10210000210037000800e00004003a005c0890005d
:102110008d0120000000e0000600320011000900df
:102120000e84d8000fb99700e2c07800f1ef9f004d
:102130007d012000110009000e84d8000a0037003c
:10214000110009000e04d8008d06e9000e81b900c7
:10215000020454008fb8970061417c0081fd2f007c
:102160008f80400082f07e00000478000800e000cc
:10217000020032000d00e000f1ff3c00cfc4de00a1
:10218000614db90025003700e00f5400e08f5c007e
:1021900004003a005c0890008d0120000000e0007f
:1021a000070032006171b9000800be00fe0207009e
:1021b0008fb99700e3417800f3ef9f007d01200085
:1021c0006171b9000800be003bfa07000b00370040
:1021d0006171b9000800be0081f907008d06e900b1
:1021e00000f1b900020454000fba9700e4427c00e9
:1021f00084fd2f000f02420005f27e000004be00a5
:10220000e00f5000e08f5800020032000d00e000a7
:10221000efff3c004fcdde008a057800089ebe002f
:102220000a96be0030003700e00f5400e08f5c00db
:10223000e00f5d00e08f5d0004003a005c08900054
:102240008d0120000000e000090032006172b90039
:10225000612bb9000800be000a01be007b03070025
:102260000fba970064427800f4ef9f007d012000d0
:102270006172b900612bb9000800be000a01be00fe
:102280006b0307000d0037006172b900612bb900c4
:102290000800be000a01be00700307008d06e900b9
:1022a00000f2b900040454008fba970065427c0024
:1022b00085fd2f008f82420084f27e00009ebe00ca
:1022c0000296be003c04be002c05be00e00f540088
:1022d000e08f5c00e00f5d00e08f5d0002003400e5
:1022e0000d00e000e8ff3c00e80f570010003a0046
:1022f0000c1090000038a3000d003200f78f56003c
:1023000006003e0085fd2f008f824200e5c07e0062
:1023100000c3b30080cf5000050032008d06e900f5
:1023200002c3b30081fd2f008f80400082f07e0049
:1023300078811600120e98006c00900083fd2f002b
:102340008f8141008d804100adfe07001c08900088
:10235000dc089000810f500006003d000080500016
:10236000000e98000c1090000040a100001698008c
:102370000f0037000100e0000d003d008c109000c0
:10238000f4806000f08f500009003a007c09900052
:10239000fc009000810051000c09900082805000e8
:1023a000008050004240a90001003400000e980057
:1023b0004f0778004f06be004f05be004f04be0019
:1023c000cf01b100000006000400fa00889fbe00a3
:1023d0008a9fbe008c1f78000004780001067800f8
:1023e000f80d900078009000808555000808900056
:1023f00080855500180890008085550028089000b9
:102400008085550038089000808555004808900068
:10241000808555000002220090bf9f00000323002a
:10242000a0bf9f00081090000028a30015003a00ec
:102430000b00e000130034000b0578008a047800dc
:10244000e20f55000100360029002000c80190006d
:1024500009017800ee805700580090000300010049
:10246000500498000000e0008c00320068089000e2
:1024700009004000600c9800090555004240a90081
:10248000eeff3c00780190000200e0000c003400f8
:10249000c80190008c0078005800900003000100f3
:1024a000500498008080eb000000e0007c003200c7
:1024b000e80890007800900000804000600c9800d0
:1024c000880c90000900e000110034000905780034
:1024d000e28f5400010036002a002000c80190005d
:1024e0000a017800ec8057005800900003000100ba
:1024f000500498000000e000680032006808900076
:102500000a004000600c98008a845400edff3700f8
:10251000180990000200e0000c003400c80190008f
:10252000e80090005800900003000100500498005b
:102530008080eb000000e00059003200e8089000c5
:102540001808900000804000600c9800a80c9000d3
:102550000900e0001100340009057800e28f540002
:10256000010036002a002000c80190000a0178000e
:10257000ec805700580090000300010050049800c0
:102580000000e00045003200680890000a004000aa
:10259000600c98008a845400edff370038099000e1
:1025a0000200e0000e003400e800900018089000df
:1025b00080804000c8019000580090000300010096
:1025c000500498008080eb000000e00034003200ee
:1025d000e80890003808900000804000600c9800e7
:1025e000c80c90000900e0001100340009057800d3
:1025f000e28f5400010036002a002000c80190003c
:102600000a017800ec805700580090000300010098
:10261000500498000000e00020003200680890009c
:102620000a004000600c98008a845400edff3700d7
:10263000081090008000eb000028a3001800320072
:102640000b00e000160034008b04780009057800c8
:10265000e28f5400010036002a002000c8019000db
:102660000a017800ee805700580090000300010036
:10267000500498000000e000080032006808900054
:102680000a004000600c98008a8454004240a9006f
:10269000eeff3c008000eb00010037008080eb0083
:1026a000010078004f0678004f05be004f04be00c1
:1026b0000080fa0000000600010878000000060013
:1026c000e600400011017800050028008502610045
:1026d0006f016100820878000200320012002000c1
:1026e00011003700a0019000120020000300e0005c
:1026f0000d003a00900190000300e0000a003a004b
:102700001000e00008003a00360037006403400083
:102710009608780080017800530b780090097800c3
:102720000408780070015100110278000400e000f4
:10273000f6ff3200130037006402400014037800f3
:102740004f33de00838141008308730080017800ed
:10275000d3037800cf3bde00140378000603430068
:10276000068a730013027800040242001003780006
:102770004f33de0086097200900178000388410023
:102780000201e90091017800ef8f5100eaff360065
:102790001000370080017800530378004f33dd00cc
:1027a0001002d10004087300640240009403780012
:1027b000cf3bdd001303d10086897300110378003d
:1027c0004f33dd009401d100030a73009108d1005a
:1027d0000201e80091017800ff8f5100edff3e00fb
:1027e000ef88610091887200020078000000060006
:1027f0008f1fd100f40207008f87e9000000e0007e
:1028000000000600809feb00ef0207008f87e900c1
:102810000000e000000006002800fa00889fbe00cb
:102820008a9fbe008c9fbe0003866b00800007005d
:102830006400e100440032006408e1004a00320014
:102840006100e100460032006108e1004900320009
:10285000ec0647006000b8003d02be003d03be002c
:10286000f48657006011b8003d04be003d05be006f
:102870007d0320000b0037000000a0008d06e9005a
:10288000130032000402420085824a0006034b0016
:1028900087834b000000400081804800020149000e
:1028a000838149000802520089825a000a035b00b2
:1028b0008b835b00f0ff3b000802420089824a00e4
:1028c0000a034b008b834b008d06e900edff3a00b5
:1028d0008482720086827200f707b20087827200db
:1028e00001003200150020001e0490003e0b9000f5
:1028f00006035400e63fb0000368a300070032005f
:102900000000a7000500a0008301d1000281d300d0
:102910008180d3000080d3000603e8008301d1004a
:102920000281d3008180d3000080d3000002eb003d
:102930000482d2001200070003f0a1000cf0a700ef
:1029400003f0a0004e003700640247006408e10075
:10295000480032003400be003401be00f6ff3700ec
:102960006108e100430032006011b8006000b80067
:10297000f1ff370003ff270002002000fbff3700b4
:102980001800200057002000080453000d003d00ef
:102990000600200097fc2f000740e1001e003400d5
:1029a00084827200610260008301d1000281d30041
:1029b0008180d3000080d3000804e800f8ff3a00cb
:1029c00047002000610460000504740004046400f2
:1029d0000d00320061004000e080480060014900c5
:1029e000e081490003b8a500070032000603e800b3
:1029f0006538e10004003a008301d1000281d30070
:102a00008180d3000080d300f87f20000830e100ef
:102a100003003500080378006000b8006011b800ba
:102a20004433dd00f300b2008301730000000600b0
:102a3000680447000294be000094be00fc044700f6
:102a40008694be008494be0009007800a7020700a7
:102a500008007800a502070099007800814f7000f7
:102a60000b003b000800be00800207004f00b100d1
:102a700003003700f3ff2700f2ff2f006110b900b9
:102a80004f06be004f05be004f04be000080fa0096
:102a90000000060081037800a6f707000001be00d1
:102aa0006000b8000478a30013003a006220e1003f
:102ab00015003e000d0039008301d1000281d300d2
:102ac0008180d3008301d1000281d3008180d300b3
:102ad0008301d1000281d3008180d3000538b0008a
:102ae000c42add00f300b2008381720007f0a70062
:102af00003f0a00000000600f3ff2700f2ff2f0004
:102b00006110b900fbff370003ff2700f7ff370014
:102b10001400fa00889fbe008a9fbe008c9fbe00f2
:102b20000004be000205be00680047000a90be0017
:102b30000890be006d0207000070a7000bf0a10016
:102b4000304320009e02900080825200b0fe2f0091
:102b50000028e10011003d00b0fc2f000028e1003a
:102b6000150034001e0990008e0890007e00900031
:102b70000501b0000201d1008180d3000080d300a4
:102b80008502e800fbff3a000b00e000bcff3b00c1
:102b900060001000e0801800b9ff3700f0ff2f0040
:102ba000f1ff27000b00e000b5ff3b00010028000b
:102bb00000002000b2ff37006000b800b0ff37000f
:102bc0004f89de00820178006f0237002800fa008a
:102bd000889fbe008a9fbe008c9fbe0003866b004c
:102be00093ff07000028a30064003a000128a30017
:102bf00067003a000008a30062003a000108a30041
:102c000065003a001e009000be089000810640005a
:102c1000ed3fb100f4805700ee019000111ab800aa
:102c20008e099000311bb8009e099000311cb8003d
:102c3000511db800f485570046000700fe019000c2
:102c40003a0007008b85e8003e0007008e099000df
:102c500040000700ee019000340007008b85e8007b
:102c6000380007008e099000400007009e09900080
:102c70001b18b800890440000a854800fe01900036
:102c8000340007008b85e80038000700ee01900053
:102c9000300007008e0990001b18b800890440001e
:102ca0000a8548000a98a30008003a00040242007e
:102cb00085824a0006034b0087834b0008044c00c2
:102cc00089844c000a054d008d06e900848272005b
:102cd000850273004c3add0085027200010032006b
:102ce00015002000443ade001400b2004538de0032
:102cf000cb45dd000b007000c540de00cb4ddd0094
:102d00008b8070004549de00cb55dd000b01710062
:102d1000c551de000d03780019ff070003f0a10084
:102d20000cf0a70003f0a00055ff37001b18b800f7
:102d30008502400006834800e0834b0060044c009d
:102d4000070037001b18b8000603400087834800bf
:102d5000faff37001b18b8008703400008844800ba
:102d6000e0844c0060054d00000006001b18b80010
:102d70000804400089844800faff37000108a300d6
:102d80003cff3a005800be005801be00e3ff370088
:102d90000008a30037ff3a0009047800f9ff370064
:102da00007f0a2000b01370043f707000400be0044
:102db00000000600020ab900001bb9000200b800ba
:102dc000810042008100430000000600889fbe0091
:102dd0008a9fbe0030044200b0844a0030054b0098
:102de00090854b006000b1000898be000a90be00bc
:102df0000440e10005c8e10006d0e10007d8e10089
:102e000002003100680040001008e8004f05be00d5
:102e10004f04be0000000600889fbe008a9fbe00cf
:102e20003004be002005be000418540005985c0064
:102e300006185d0007985d00110020000440e100c5
:102e400005c8e10006d0e10007d8e1000100390023
:102e50008000eb00108810004f05be004f04be003c
:102e6000000006001200fa00889fbe008a9fbe0084
:102e70008c9fbe00e0b79f00f1b79f0082bf9f000c
:102e800093bf9f000605be000404be000000eb00d7
:102e9000d0b79f00c0b79f00b0b79f00a0b79f00fa
:102ea00090b79f000006eb005fb19700cfb097008e
:102eb000820141003fb097000200e00004003d00a5
:102ec000370007007e805700c0ff0700030037006f
:102ed000330007007e805700cfff0700dfb6970062
:102ee0000d00e0000c0035006fb29700ffb29700b4
:102ef0000fbb97009fbb970010002000010020002f
:102f00006011b80000027200818272000203730037
:102f1000838373001b0007000c06e80001042000f7
:102f2000810f5600e0ff3a000d00e00004003d0074
:102f30000802be000a03be007e805700a3ff070000
:102f40005fa897000000e00005003a001fb297005c
:102f5000afb297003fb39700cfb3970009000700c7
:102f60006fb09700ffb097000fb997009fb9970017
:102f70004f06be004f05be004f04be000080fa00a1
:102f8000000006000100070000000600a4b79f0033
:102f9000b5b79f00c6b79f00d7b79f0000000600d7
:102fa0004f09de0082817100b3b79f004f01de0040
:102fb0008180400082807000a1b79f008fb0970091
:102fc0004f09de00000040000200700090b79f0033
:102fd0007fa897004f01de00818040008280700052
:102fe00081b79f000d0007004f3ade00000040004f
:102ff00004007000f0af9f000800070004024200c8
:1030000085824a0006034b0087834b00dfff0700e1
:103010000802be000a03be00000006002fb297009f
:10302000bfb297004fb39700dfb3970000000600d0
:10303000881f780018002000881f780089ff07008b
:103040008f87e9004f04780000000600801feb0026
:1030500084ff07008f87e90000000600889fbe00fc
:103060008a9fbe00e00f5000e08f5800e00f59002b
:10307000e08f59000c003d006044b8006055b80076
:103080000000540081805c0002015d0083815d00ce
:10309000180020001500070008003d001800070078
:1030a0000004eb00050037000004eb000f000700f0
:1030b00002003d001200070018002000dcff07009e
:1030c0000800e000060032006022b8006033b8005b
:1030d0000000520081805a0002015b0083815b0086
:1030e0004f05be004f04be0000000600e00f520076
:1030f000e08f5a00e00f5b00e08f5b0000000600ed
:103100006044b8006055b8000402540085825c0039
:1031100006035d0087835d0000000600889fbe00f7
:103120008a9fbe008c1f7800e00f5000e08f58008f
:10313000e00f5900e08f59000d003d006044b800d9
:103140006055b8000000540081805c0002015d0001
:1031500083815d001c0020000820e10009a8e10037
:103160000ab0e1000bb8e1000d003d000800370097
:103170000006eb00e00f5200e08f5a00e00f5b000a
:10318000e08f5b0006003d006044b8006055b80069
:103190000402540085825c0006035d0087835d00a5
:1031a000aaff07000c00e000060032006022b80011
:1031b0006033b8000000520081805a0002015b00b9
:1031c00083815b004f0678004f05be004f04be00b0
:1031d000000006002800fa00889fbe008a9fbe00fb
:1031e0008c9fbe0007067800878669000c003b00b4
:1031f000030478008704780008f0a10009f0a1001a
:10320000840f5000858f5800860f5900890f5c008d
:10321000030033000cf0a20001003a000cf0a10002
:1032200003fe07006400e1005f0032007801470000
:103230006408e100610032006c01470074855700aa
:103240003200be001201be003a04be001a05be00e4
:103250001e039000be0a90008503530006003d0047
:103260000004fd008104fd000205fd008305fd0052
:103270008703ea00050378000df8a300040032007c
:1032800060041400e0841c0060051d00e0851d0042
:103290006022b8007d0320000d38e1008006eb00bd
:1032a0000b0039004433dd00f300b20083017300ea
:1032b00039003700848272000d027800e106640054
:1032c0008b85d1000a85d3008984d3000884d3007c
:1032d0008703e900f7ff3b000800400089804800b1
:1032e0000a0149008b81490004003b006000100086
:1032f000e080180060011900e08119000358a30064
:10330000090032008d8272008482720061026000c6
:103310008301d1000281d3008180d3000080d300db
:103320000603e8001b0037000348a30017003a001b
:103330000600e000170034000603e9000d00a300ba
:103340000000480081804800020149008381490053
:103350000348a3000f003a000600e0000900340013
:103360000603e90000004000818048000201490096
:103370008381490001003a000003eb000348a300e9
:10338000f5ff32006022b80002003700848272002c
:10339000618266007afd070003f0a1000cf0a7002f
:1033a00003f0a000b6fd3700640147006408e100a7
:1033b00002003a000df8a300aefd3a003200be0054
:1033c0001201be00aefd3700889fbe008a9fbe007e
:1033d0008c9fbe000404be000605be00809fbe0098
:1033e000829fbe002f000700040678000800be0080
:1033f0000a01be002b000700840678004f03be00c0
:103400004f02be008d4f76007fb09700130033004f
:10341000f0ff2f008b8f6b0006003b000d0666004f
:103420000c00a7000a00370007f0a60010002000db
:103430000a003700880f5200898f5a008a0f5b00fc
:103440008b8f5b00030039001000200001003e005c
:103450000000200007f0a7000000ea004f06be00b1
:103460004f05be004f04be0000000600e48240008d
:103470001078a30007003200640240001178a30016
:103480003400be001401be00040032000330a70067
:10349000000006003500be001501be000330a0008c
:1034a0000000060005ff27000582610007003200ca
:1034b0000428e10001003200240005000600070096
:1034c00001003a004400050004080500020007005e
:1034d000f9ff3a00140005006f826100810270005c
:1034e00085027100850272000000060080007800ed
:1034f0005002be005003be004439de00f700b200a7
:10350000f37f200003016100090032000218e1008e
:1035100016003a00850172008301730083817300f5
:103520000008200015003a0040002000130037007a
:1035300085017200830173008381730005003a00e6
:1035400004a8be0006a8be00100020000b00370033
:103550000201e9000402420085824a0006034b0092
:1035600087834b000748a300f9ff32000740a00003
:1035700004a8be0006a8be0020002000800098001d
:103580009200980000000600881f7800030478006d
:103590000300e00007003d0060001000e08018001c
:1035a00060011900e081190002003b0001f02d00cc
:1035b000030037000400070008f0a70003f0a00094
:1035c0004f04780000000600889fbe000082700053
:1035d000040271000482710024003200364320008e
:1035e000c50020008383cf000a0039000541b100e7
:1035f0008283cf00070039000541b1008183cf00ed
:10360000040039000541b1008083cf00010039007a
:103610000541b10085c353006022b800120032009a
:103620000a003b0084827200610260008301d100c5
:103630000281d3008180d3000080d3000603e8001c
:103640008743e800f7ff3a0007003700000040001a
:103650008180480002014900838149000603e90096
:103660008743e900f9ff3a00c5fc07004f04be009c
:043670000000060050
:020000040000fa
:10367400245000004d5400004b330000313400004e
:103684002c3000002c3100002c3000002c310000c4
:103694002c3000002c3000002c3000002c300000b6
:1036a4002c3000002c3000002c3000002c300000a6
:1036b4002c3000002c3000002c3000002c30000096
:1036c4002c3000002c3000002c3000002a32000086
:1036d400380d00000a00000036300000303a0000c7
:1036e4007c250000647c0000252e0000316600006b
:1036f4007c250000647c00002573000000000000ad
:020000040000fa
:103704000200fa00700220002010880007e2a900dd
:103714000722a8008620a90007e2a8000010800064
:10372400000f7800340007000080fa000000060053
:103734000200fa000000eb00000f78000622a80047
:10374400070037004000200001002000200507008a
:103754001e0fe8001e007800f40f500005003c0026
:1037640030108000620060000000e000f5ff3a00c5
:10377400010037000000000080002000010020004c
:10378400130507000080fa00000006000200fa009a
:103794000000eb00000f780006a2a90080022000c0
:1037a400010020000a0507000602a80007003700f0
:1037b4004000200001002000050507001e0fe8005e
:1037c4001e007800f40f500005003c00301080000b
:1037d400610060000000e000f5ff3a0001003700de
:1037e400000000008000200001002000f804070011
:1037f4000080fa00000006000200fa000000eb005e
:10380400000f78000642a80007003700400020009f
:1038140001002000ee0407001e0fe8001e007800df
:10382400f40f500005003c0030108000640060007c
:103834000000e000f5ff3a0001003700000000003e
:103844000662a9008620a90008e2a9000942a9008d
:103854008002200001002000dd0407000080fa003f
:10386400000006000400fa001007980000000000a1
:1038740040108000610060000000e000fcff3a009e
:103884008620a9001e009000101088000000eb00a4
:10389400000f780009003700411080000000240068
:1038a400008060000000e0000900320040002000b9
:1038b40001002000c60407001e0fe800301f20008e
:1038c4009e007800808f5000f3ff34000100370021
:1038d40000000000401f20009e007800808f5000f0
:1038e40002003a0010c0b3000c0037004110800001
:1038f40000002800008060000000e00003003200a7
:10390400bdff070010c0b300040037008000200092
:1039140001002000ae0407000040eb000080fa0024
:10392400000006000400fa000000eb00000f78001d
:103934000040eb00204798000662a800050037000d
:103944001e0fe800007d20009e007800808f50004c
:1039540005003c0040108000620060000000e000b0
:10396400f7ff320001003700000000000010800063
:10397400204798002e4090000080fa0000000600c6
:103984000400fa000000eb00000f78000040eb0098
:10399400204798000662a800050037001e0fe800c3
:1039a400007d20009e007800808f500005003c00c0
:1039b40040108000620060000000e000f7ff320069
:1039c400010037000000000000108000204798002c
:1039d4000682a80080022000010020007c04070069
:1039e4002e4090000080fa00000006000400fa0057
:1039f400204798000040eb00004f780063ff070069
:103a04002e4090000000fb0096ff0700004f780056
:103a140079ff07001e4078000080fa0000000600cd
:103a24000600fa0020479800210798008e007800cd
:103a34002e409000060007001e00780080007800e9
:103a44002e009000010878000080fa0000000600b3
:103a54000400fa00004f7800110798001e0090003f
:103a6400800078001e4078000d0007000080fa00f6
:103a7400000006000800fa0040479800310798004b
:103a84008e0078004e409000050007001e00be0026
:103a94003e0190000089be000080fa00000006008c
:103aa4000400fa00889fbe00004f780011079800b8
:103ab40036ff0700e00e20006aff07001e00fb002f
:103ac40068ff07001aff0700f00e200065ff0700db
:103ad400abff07000000fb00cf80de001e0190005a
:103ae4000089be001e0090001000be00480cdd00de
:103af400c804de00890474004804dd0089ff07005f
:103b04000000fb00cf80de000800400089804800f0
:103b14001e0190000089be0037ff07004f04be005d
:103b24000080fa00000006001600fa00200f98003a
:103b3400af010700008fbe002e08900050009000d7
:103b44008000eb003e011000ae8118002e089000aa
:103b5400400090008000eb00009ab9000402780055
:103b6400028bb90086027800050242000010b800fa
:103b740001024200840078004109dd004f00de00ac
:103b840000007100cf88de002007980031079800fc
:103b94002e08900010089000cf80de004b0add0054
:103ba400c502de00850272004b02dd002e08900083
:103bb400200890006101b9002e009000be00900022
:103bc40002004000838048000001be000400be00e3
:103bd40002f3070040079800510798002e01900057
:103be400be0190004e009000de00900002004000f4
:103bf4008380480060079800710798006e00900069
:103c0400fe00900068004000e08048004c09dd00a0
:103c14004400de0000007100c488de00000f98003c
:103c2400110f98000e0890009e0890000080fa0082
:103c3400000006002e00fa00601798006c010700cf
:103c440020079800310798007b010700400798007f
:103c5400510798006e109000500090008000eb0017
:103c64002e019000be019000000151008181590095
:103c74006e109000400090008000eb00009ab900a4
:103c840004027800028bb900860278000502420023
:103c94000010b80001024200840078004109dd00f0
:103ca4004f00de0000007100cf88de00600798003e
:103cb400710798006e10900010089000cf80de000d
:103cc4004b0add00c502de00850272004b02dd00f6
:103cd4006e109000200890006101b9006e00900001
:103ce400fe00900002004000838048000001be00f6
:103cf4000400be00b9f20700000f9800110f9800ed
:103d04006e019000fe0190000e0890009e08900045
:103d14000200400083804800200f9800310f980073
:103d24002e099000be09900000062f00f1ff2f001d
:103d34000200400083804800400f9800510f980013
:103d44006e109000700090006101b900de089000d0
:103d54004e0890000088b90000027800de08900048
:103d64004e0890000088b90000007800000242006c
:103d7400ce0890004e0890000008b80001024200ee
:103d840084007800440add004c00de00000072006c
:103d9400cc88de00009ab90004027800028bb900d6
:103da40086027800050242000010b80001024200b9
:103db400840078004509dd004b00de00000071003e
:103dc400cb88de0060079800710798006e109000a1
:103dd40010009000cf80de004e0990000191b900e0
:103de40002017800de099000009ab900840178008d
:103df40003014100ce0990000018b8000101410000
:103e040082007800450add004b00de0000007200ed
:103e1400cb88de00000f9800110f98006e0190000f
:103e2400fe0190000e0890009e08900002004000e1
:103e340083804800600f9800710f98006e10900006
:103e440010007800cf80de004209dd00ce01de00e4
:103e5400830171004201dd006e089000fe089000ad
:103e6400020040008380480062004000e080480077
:103e7400e00f5000e08f580002003d006300400056
:103e8400e08048004e09dd004200de0000007100c1
:103e9400c288de0000179800111798006e10900079
:103ea40020009000cf80de004e0990000191b900ff
:103eb40002017800de099000009ab90084017800bc
:103ec40003014100ce0990000018b800010141002f
:103ed40082007800430add004d00de00000072001d
:103ee400cd88de0060079800710798006e1090007e
:103ef400600090006101b900de0890004e08900057
:103f04000088b90000027800de0890004e08900096
:103f14000088b9000000780000024200ce0890003a
:103f24004e0890000008b8000102420084007800a6
:103f3400440add004c00de0000007200cc88de0084
:103f4400009ab90004027800028bb9008602780056
:103f5400050242000010b80001024200840078000b
:103f64004088de00cf80de00000f9800110f98001b
:103f74006e019000fe0190000e0890009e089000d3
:103f8400020040008380480062004000e080480056
:103f9400e00f5000e08f580002003d006300400035
:103fa400e08048004e09dd004200de0000007100a0
:103fb400c288de00600f9800710f98006e109000a8
:103fc400300090006101b8006e0a9000fe0a900073
:103fd4000000280001002000040040008580480003
:103fe400009ab90004027800028bb90086027800b6
:103ff400050242000010b80001024200840078006b
:10400400410add004f00de0000007200cf08de0030
:1040140020179800311798004e019000de0190009f
:104024000e1090009e1090000000510081805900f5
:1040340002352c000289b900020178006002b9003f
:10404400840178000301410003352c000300b8000b
:104054000101410082007800401798005117980030
:1040640040179800511798004e109000de109000f1
:10407400e00f5000e08f5800090035004e1090000a
:10408400de10900000004000818048002e11900056
:10409400be11900087f20700008fbe0008003700b1
:1040a4002e119000be1190004e109000de10900072
:1040b40080f207000000400081804800008fbe00ad
:1040c4001e00be00c889de00480add004801de008b
:1040d400020172001e00be00480add004800de0036
:1040e40000007200c888de00009ab900040278005b
:1040f400028bb90086027800050242000010b80065
:10410400010242008400780060079800710798005b
:104114006007980071079800fe009000e0bd200041
:104124000088b900000178006e0090006000b900ba
:104134000000780000014100ee009000e0bd200086
:104144000008b80001014100820078004088de00c8
:10415400cf80de0060079800710798009e009000f1
:1041640030342e000088b900000178009e007800e9
:104174000080eb000088b9000000780000014100d5
:104184009e00780030342e000008b8000101410080
:10419400820078004088de00cf80de00000f9800a7
:1041a400110f98006e019000fe0190000e0890001f
:1041b4009e0890000201400083814800f0ec20003a
:1041c4000100200002004000838048004c09dd000b
:1041d4004400de0000007100c488de001e0f4000b1
:1041e4005e9748001e00be000080fa000000060032
:1041f4000400fa0065fd0700e00e200099fd0700a9
:10420400400f200097fd0700e002200095fd070005
:1042140079fd070000652400010020006c020700fe
:104224008e00780060cfb30012fe07001e00be00af
:104234000080fa00000006000400fa0053fd0700a5
:10424400e00e200087fd0700400f200085fd0700d9
:104254004003200083fd070067fd070000e22400ff
:10426400010020005a0207008e00780060cfb300de
:104274003c0007001e00be000080fa00000006009b
:104284000200fa00000f78001e0078008000780019
:10429400a0cab300e2fd07001e80e8008000780099
:1042a400c0cab300defd07009e00780064804000b1
:1042b40080007800e0cab300d9fd07009e007800b2
:1042c400668040008000780000cbb300e0fd07006a
:1042d4009e007800688040008000780020cbb30006
:1042e400dbfd07009e0078006a80400080007800b3
:1042f40040cbb300d6fd07009e0078006c804000e0
:104304008000780060cbb300c5fd07009e007800f4
:104314006e8040008000780080cbb300c0fd0700b1
:104324009e0078007080400080007800a0cbb3002d
:10433400bbfd07009e00780072804000800078007a
:10434400c0cbb300b6fd07009e0078007480400027
:1043540080007800e0cbb300b1fd07000080fa00d4
:10436400000006000800fa00404798003107980052
:104374008e0078004e409000050007001e00be002d
:104384003e0190000089be000080fa000000060093
:104394000800fa004047980031079800fbfc07002a
:1043a400e00e20002ffd07004e4090000000fb00af
:1043b4002cfd0700defc0700f00e200029fd07009d
:1043c4006ffd0700004f78006dfd0700104798004f
:1043d4006bfd0700204798001e80fb008000eb0067
:1043e400c001dd00020020001e4090000082fb009e
:1043f4008002eb004828dd00c820de008100700048
:104404004820dd0002014000838148002e409000d6
:104414000080fb008000eb00020040008380480025
:104424004809dd004800de0000007100c808de0015
:104434003e0190000089be00effc07000080fa00f6
:10444400000006000a00fa00400798004e009000a1
:10445400b5fd0700008fbe001e00be0009f1070075
:10446400200798003107980002002000031224005e
:104474002e009000be00900096f0070062662600b1
:1044840063fe230057f107000200200003202400ec
:1044940033f0070020079800310798002e009000a1
:1044a400be0090000080fa00000006000800fa0038
:1044b400300798003e009000defd0700008fbe002c
:1044c4001e00be004206200003002000c3f00700c7
:1044d400008fbe009e007800210798002e009000f7
:1044e4000080fa00000006000400fa00008fbe00fd
:1044f4001e01be0000092d00310020006df10700ef
:10450400000078000000e9004011880021e2a900c1
:104514002022ef002222ef009560a9008560a90007
:104524004005800000c0a10000d0a00000e0a00071
:104534004005880021e2a8002342a8000080fa0078
:10454400000006000400fa00008fbe001e01be0039
:1045540000092d003100200056f10700000078000a
:104564000000e900c011880031e2a9003022ef0008
:104574003222ef0097c0a90087c0a90090058000ef
:104584000080a0000090a10000a0a0009005880079
:1045940031e2a8003342a8000080fa0000000600bf
:1045a4000200fa00004f78000000000011118000a2
:1045b40000202000008060000000e000fbff3a00c3
:1045c4001e00fb00201188000080fa000000060095
:1045d4000200fa00004f78000000000091118000f2
:1045e40000202000008060000000e000fbff3a0093
:1045f4001e00fb00a01188000080fa0000000600e5
:104604000200fa0010118000620060000000e00067
:10461400020032002222a90001003700000000003d
:1046240010118000610060000000e000fcff320017
:1046340030118000004f78001e4078000080fa009e
:10464400000006000200fa00901180006200600081
:104654000000e000020032003222a900010037000d
:104664000000000090118000610060000000e00084
:10467400fcff3200b0118000004f78001e4078002b
:104684000080fa00000006000400fa0010079800f9
:104694001e00900010407800cdff07001e0090001f
:1046a400104f78001e0090000000e80010079800ea
:1046b4001e407800ea4f5000f5ff3a000080fa00ef
:1046c400000006001801fa0039000700060107007f
:1046d400005822000100200083ff07000058220038
:1046e4000100200097ff07005b00070004fc07009f
:1046f400201020000e004000e1fe07009560a80095
:1047040097c0a80003003700000000000100370034
:104714000000000001010700d0478800201020009d
:104724000e00400047ff0700e0478800f14788007b
:10473400201020000e0040005cff070000488800a5
:10474400580007000004e000efff320050000700ab
:10475400000f780004488000e0478000f1478000a3
:10476400d34780000e81e8009e1f7800841f7800e4
:10477400809fbe00831f7800e0b62900801f780068
:104784000200780021f10700ec875700f8c8bf0049
:104794000004e000deff34000e80e800fd000700a6
:1047a400f8c8bf000040e900f8e8b700d9ff3700b7
:1047b4000000fa00007a2700103a88000000240064
:1047c400203a88004827ef000080fa000000060025
:1047d4003600f800809fbe00829fbe00849fbe000a
:1047e400869fbe003400f80000002000a00188006d
:1047f4000200fa002f000700004f78008560a9002e
:104804000080fa003400f9004f03be004f02be00de
:104814004f01be004f00be003600f9000040060004
:10482400801f78003400f80000002000a0018800f8
:104834000200fa0020c0b300f8e8b700b01180000d
:10484400004f780087c0a9000080fa003400f90006
:104854004f007800004006000000fa00f668ef0000
:10486400f028ef0000802000904788008087200017
:10487400a0478800a0b3290045000700009020004d
:10488400d1032000d20007000080fa0000000600d7
:104894000000fa00f668ef00a04780000080fa00ec
:1048a400000006000000fa00f6c8bf000080fa000d
:1048b400000006000200fa000040eb00004f780000
:1048c4004fff0700004f780040c2b3009e407800bd
:1048d40080cf500006003a00914780008047800056
:1048e400008040008040eb0001487800f028ef0091
:1048f4001e407800ea4f500015003a0091478000ae
:1049040080478000008040008040eb000148780030
:104914009147800000802000808f500005003a00fd
:10492400808720009047880000802000a0478800ee
:104934000400370000802000904788008087200012
:10494400a0478800f028ef0010c0b300f6e8b700d5
:1049540092478000804780008000780081004100f9
:104964009e4878000000e800804788008147800066
:1049740070072000808f5000020034007007200070
:10498400804788001e4078000080fa00000006007e
:104994000400fa00100798001e00900010407800f0
:1049a400fffe07001e009000104f78001e009000cc
:1049b4000000e800100798001e407800ea4f5000fd
:0c49c400f5ff3a000080fa000000060039
:020000040000fa
:1049d000f80800000a0000000000000000080000c5
:1049e000f8000000000000007c0900001a00000030
:1049f00002000000686a6c00747a4c00000001003c
:104a00000002000004000800001000000000200068
:104a10002b2d230030000000020900005800000088
:104a2000020000006e616e00004e41004e00690001
:104a30006e660000494e46000000000000000000c5
:104a40000024400000000000000000005940000069
:104a5000000000000088c300400000000000840047
:104a6000d79741000080e0003779c3004143170029
:104a70006e05b500b5b8930046f5f9003fe90300af
:104a80004f384d00321d3000f9487700825a3c0003
:104a9000bf737f00dd4f1500750000009609000010
:104aa0000200000002000000300000005a0900006f
:104ab00022000000020000003031320033343500a3
:104ac0003637380039414200434445004600300043
:104ad00031323300343536003738390061626300d3
:0c4ae000646566000000000006268000ef
:020000040000fa
:104aec000000fa00f0bf2f00601988002023ef00af
:104afc002223ef000010200020198800a0a0200025
:104b0c00401988003023ef0021e3a8000080fa0050
:104b1c00000006000400fa002023a80000fa200080
:104b2c0001002000280007002023a900000000003d
:104b3c0000198000610060000000e000fcff320002
:104b4c0001188000010f78001e0078008000eb0037
:104b5c004def070032332300330524009fef07008d
:104b6c000200200003482400d8ee0700d2cc2c0011
:104b7c00c3dc2300d5ee070025ef070010079800d3
:104b8c001e0090000080fa00000006000400fa00ed
:104b9c00100798001e009000104078008afe070055
:104bac001e009000104f78001e0090000000e800de
:104bbc00100798001e4078000004e000f5ff3a0052
:084bcc000080fa000000060061
:020000040000fa
:104bd400f03fb1000180b10006003500ee0309008a
:104be40000000000403fb1000180b100fbff3d0028
:104bf4001000b000203fb000020035000080090022
:084c04000000000000000600a2
:020000040000fa
:044c0c0000000000a4
:020000040000fa
:0200000401f009
:04000000ffff0000fe
:020000040000fa
:0200000401f009
:04000800ffff0000f6
:020000040000fa
:0200000401f009
:04000c008700000069
:020000040000fa
:0200000401f009
:04001000bf0000002d
:020000040000fa
:0200000401f009
:040014005f00000089
:020000040000fa
:0200000401f009
:04001800f3000000f1
:020000040000fa
:0200000401f009
:04001c00c10000001f
:020000040000fa
:0200000401f009
:040020003f0000009d
:00000001FF
