:020000040000fa
:080000000002040000000000f2
:020000040000fa
:04000800ac02000046
:020000040000fa
:04000c00ac02000042
:020000040000fa
:04001000ac0200003e
:020000040000fa
:04001400ac0200003a
:020000040000fa
:04001800ac02000036
:020000040000fa
:04001c00ac02000032
:020000040000fa
:04002000ac0200002e
:020000040000fa
:04002400ac0200002a
:020000040000fa
:04002800ac02000026
:020000040000fa
:04002c00ac02000022
:020000040000fa
:04003000ac0200001e
:020000040000fa
:04003400ac0200001a
:020000040000fa
:04003800ac02000016
:020000040000fa
:04003c00ac02000012
:020000040000fa
:04004000ac0200000e
:020000040000fa
:04004400ac0200000a
:020000040000fa
:04004800ac02000006
:020000040000fa
:04004c00ac02000002
:020000040000fa
:04005000ac020000fe
:020000040000fa
:04005400ac020000fa
:020000040000fa
:04005800ac020000f6
:020000040000fa
:04005c00ac020000f2
:020000040000fa
:04006000ac020000ee
:020000040000fa
:04006400ac020000ea
:020000040000fa
:04006800ac020000e6
:020000040000fa
:04006c00ac020000e2
:020000040000fa
:04007000ac020000de
:020000040000fa
:04007400ac020000da
:020000040000fa
:04007800ac020000d6
:020000040000fa
:04007c00ac020000d2
:020000040000fa
:04008000ac020000ce
:020000040000fa
:04008400ac020000ca
:020000040000fa
:04008800ac020000c6
:020000040000fa
:04008c00ac020000c2
:020000040000fa
:04009000ac020000be
:020000040000fa
:04009400ac020000ba
:020000040000fa
:04009800ac020000b6
:020000040000fa
:04009c00ac020000b2
:020000040000fa
:0400a000ac020000ae
:020000040000fa
:0400a400ac020000aa
:020000040000fa
:0400a800ac020000a6
:020000040000fa
:0400ac00ac020000a2
:020000040000fa
:0400b000ac0200009e
:020000040000fa
:0400b400ac0200009a
:020000040000fa
:0400b800ac02000096
:020000040000fa
:0400bc00ac02000092
:020000040000fa
:0400c000ac0200008e
:020000040000fa
:0400c400ac0200008a
:020000040000fa
:0400c800ac02000086
:020000040000fa
:0400cc00ac02000082
:020000040000fa
:0400d000ac0200007e
:020000040000fa
:0400d400ac0200007a
:020000040000fa
:0400d800ac02000076
:020000040000fa
:0400dc00ac02000072
:020000040000fa
:0400e000ac0200006e
:020000040000fa
:0400e400ac0200006a
:020000040000fa
:0400e800ac02000066
:020000040000fa
:0400ec00ac02000062
:020000040000fa
:0400f000ac0200005e
:020000040000fa
:0400f400ac0200005a
:020000040000fa
:0400f800ac02000056
:020000040000fa
:0400fc00ac02000052
:020000040000fa
:04010000ac0200004d
:020000040000fa
:04010400ac02000049
:020000040000fa
:04010800ac02000045
:020000040000fa
:04010c00ac02000041
:020000040000fa
:04011000ac0200003d
:020000040000fa
:04011400ac02000039
:020000040000fa
:04011800ac02000035
:020000040000fa
:04011c00ac02000031
:020000040000fa
:04012000ac0200002d
:020000040000fa
:04012400ac02000029
:020000040000fa
:04012800ac02000025
:020000040000fa
:04012c00ac02000021
:020000040000fa
:04013000ac0200001d
:020000040000fa
:04013400ac02000019
:020000040000fa
:04013800ac02000015
:020000040000fa
:04013c00ac02000011
:020000040000fa
:04014000ac0200000d
:020000040000fa
:04014400ac02000009
:020000040000fa
:04014800ac02000005
:020000040000fa
:04014c00ac02000001
:020000040000fa
:04015000ac020000fd
:020000040000fa
:04015400ac020000f9
:020000040000fa
:04015800ac020000f5
:020000040000fa
:04015c00ac020000f1
:020000040000fa
:04020800ac02000044
:020000040000fa
:04020c00ac02000040
:020000040000fa
:04021000ac0200003c
:020000040000fa
:04021400ac02000038
:020000040000fa
:04021800ac02000034
:020000040000fa
:04021c00ac02000030
:020000040000fa
:04022000ac0200002c
:020000040000fa
:04022400ac02000028
:020000040000fa
:04022800ac02000024
:020000040000fa
:04022c00ac02000020
:020000040000fa
:04023000ac0200001c
:020000040000fa
:04023400ac02000018
:020000040000fa
:04023800ac02000014
:020000040000fa
:04023c00ac02000010
:020000040000fa
:04024000ac0200000c
:020000040000fa
:04024400ac02000008
:020000040000fa
:04024800ac02000004
:020000040000fa
:04024c00ac02000000
:020000040000fa
:04025000ac020000fc
:020000040000fa
:04025400ac020000f8
:020000040000fa
:04025800ac020000f4
:020000040000fa
:04025c00ac020000f0
:020000040000fa
:04026000ac020000ec
:020000040000fa
:04026400ac020000e8
:020000040000fa
:04026800ac020000e4
:020000040000fa
:04026c00ac020000e0
:020000040000fa
:04027000ac020000dc
:020000040000fa
:04027400ac020000d8
:020000040000fa
:04027800ac020000d4
:020000040000fa
:04027c00ac020000d0
:020000040000fa
:04028000ac020000cc
:020000040000fa
:04028400ac020000c8
:020000040000fa
:04028800ac020000c4
:020000040000fa
:04028c00ac020000c0
:020000040000fa
:04029000ac020000bc
:020000040000fa
:04029400ac020000b8
:020000040000fa
:04029800ac020000b4
:020000040000fa
:04029c00ac020000b0
:020000040000fa
:0402a000ac020000ac
:020000040000fa
:0402a400ac020000a8
:020000040000fa
:0402a800ac020000a4
:020000040000fa
:0402ac00ac020000a0
:020000040000fa
:0402b000ac0200009c
:020000040000fa
:0402b400ac02000098
:020000040000fa
:0402b800ac02000094
:020000040000fa
:0402bc00ac02000090
:020000040000fa
:0402c000ac0200008c
:020000040000fa
:0402c400ac02000088
:020000040000fa
:0402c800ac02000084
:020000040000fa
:0402cc00ac02000080
:020000040000fa
:0402d000ac0200007c
:020000040000fa
:0402d400ac02000078
:020000040000fa
:0402d800ac02000074
:020000040000fa
:0402dc00ac02000070
:020000040000fa
:0402e000ac0200006c
:020000040000fa
:0402e400ac02000068
:020000040000fa
:0402e800ac02000064
:020000040000fa
:0402ec00ac02000060
:020000040000fa
:0402f000ac0200005c
:020000040000fa
:0402f400ac02000058
:020000040000fa
:0402f800ac02000054
:020000040000fa
:0402fc00ac02000050
:020000040000fa
:04030000ac0200004b
:020000040000fa
:04030400ac02000047
:020000040000fa
:04030800ac02000043
:020000040000fa
:04030c00ac0200003f
:020000040000fa
:04031000ac0200003b
:020000040000fa
:04031400ac02000037
:020000040000fa
:04031800ac02000033
:020000040000fa
:04031c00ac0200002f
:020000040000fa
:04032000ac0200002b
:020000040000fa
:04032400ac02000027
:020000040000fa
:04032800ac02000023
:020000040000fa
:04032c00ac0200001f
:020000040000fa
:04033000ac0200001b
:020000040000fa
:04033400ac02000017
:020000040000fa
:04033800ac02000013
:020000040000fa
:04033c00ac0200000f
:020000040000fa
:04034000ac0200000b
:020000040000fa
:04034400ac02000007
:020000040000fa
:04034800ac02000003
:020000040000fa
:04034c00ac020000ff
:020000040000fa
:04035000ac020000fb
:020000040000fa
:04035400ac020000f7
:020000040000fa
:04035800ac020000f3
:020000040000fa
:04035c00ac020000ef
:020000040000fa
:10040000af8820000edf20000e01880000000000f1
:10041000000020000000e000020032000001200087
:10042000200288000c000700c0a22100010020006b
:1004300011000700000020000000e0000200320070
:1004400000000200000000005a1802000000000036
:100450000040da000000fe004440a900e00920004e
:100460000000e0000300320000002000a00188002e
:100470004440a80000000600910188008000780038
:100480000000eb0015003700e280400032a0b4000d
:100490009101ba00e280400032a0b4009102ba009b
:1004a000e280400032a0b4000002eb00472bde00e7
:1004b000f507b200602ce10004003a000059eb009f
:1004c0008301e900fdff3e00040037006128e100e0
:1004d000010032000082eb000b00070011c3ba00dc
:1004e0001101ba000604e00003003a000200e00037
:1004f000e5ff3a0000000600f607b200960188000a
:1005000082007800f5ff37003159ba008301e90015
:100510000c0032002159ba008301e90008003200c2
:100520000400e00003003a00e280400032a0b40082
:10053000f5ff370011d9ba008301e900faff3a004c
:100540008100e800e180400032a0b4000000060015
:1005500000000000000000000040da000000fe0083
:10056000889fbe008a9fbe008c1f7800ac000700e9
:10057000b300330003866c006450e1002e003200ab
:100580006420e100330032006150e1002f003200ae
:100590006120e1003100320085855500eb07b00095
:1005a000090020000804200005003700080444006a
:1005b00089844c000a0031000603430087834b0006
:1005c0000001530081815b00f8ff33000203be008d
:1005d0000800a0000804440089844c00f6ff39009c
:1005e000c639dd00830173000100320013002000d2
:1005f0008904d1000884d3000998a30005003200c3
:100600000800a7000300a0008904d1000884d300db
:100610008b05e8008904d1000884d3000001eb00b9
:100620000281d2004300070001f0a1000cf0a700f6
:1006300001f0a0008b0037006420e1008d00320043
:100640000801be000200be00f7ff37006120e10094
:10065000880032006000b800f3ff3700000020007f
:1006600001f82700f0ff3700839f68000100e000d9
:1006700002003d0060001000e08018000300e00070
:1006800002003d0060011100e0811900b000070088
:100690004f00e00002003b0060001000e080180006
:1006a000000006000001be00480007000470a7001b
:1006b00003f0a1006509b100160032000d003500fd
:1006c0006828e10006003500f0ff2f00f1ff270049
:1006d0000300e00013003b000100280000000500bb
:1006e00000004000818048008502e900fcff3a00dc
:1006f00008003700f88f420002003c008000eb0049
:10070000000005008100d1000080d3008502e800d0
:10071000fcff3a000300e00002003b006000100014
:10072000e0801800000006004f89de00820178009a
:100730009700370081002000618055000b003d00cc
:100740000b00200061fe2f000100e1001d003400bd
:1007500082817100610164008904d1000884d300a2
:100760000000e800faff3a00710020006100640018
:1007700003007000020060000900320061044400c0
:10078000e0844c000988a500050032008b05e800d4
:100790006808e10002003a008904d1000884d3000f
:1007a000f20f20000258e10005003d00c75ddd00aa
:1007b000f907b20089807500080078000000060083
:1007c0000bf827008b00780000000500c70ade0048
:1007d000f107b200f50fb20008003200e1cf42008d
:1007e000020032000170a00024000500810f70009b
:1007f000010032000408050044000500810f70006c
:1008000002003a00140005008502e90000004000e3
:1008100081c04800fcff3b000170a00024000500df
:100820000004be00e9ff07000003be000405be008f
:100830000200be00e5ff0700844f750000000600bf
:100840000200be006450e100050036006420e100b3
:10085000020036000968a30001003a000800be004b
:100860000160a0004f0678004f05be004f04be0097
:1008700000000600f0ff2f00f1ff2700f9ff37000e
:10088000889fbe008a9fbe008c1f7800e4ff07008f
:10089000ebff330003866c006450e100240032005b
:1008a0006420e100270032006150e10022003200a4
:1008b0006120e100210032008b854200eb07b1008e
:1008c0000134b800003ab8000804420089844a00a4
:1008d000013ab8000030b8008880400009014a00a1
:1008e00004003300000040008180480002014900fc
:1008f0008b05e900c909dd008301700001003200a9
:1009000013002000c814de004814dd004709de0093
:100910001200b200c808de000884700085ff0700de
:1009200001f0a1000cf0a70001f0a000cdff3700fe
:100930006120e100cfff32000801be000200be00ce
:10094000f7ff37006150e100fcff3a00c9ff3700b4
:100950006022b800060220000000d0008180d20092
:100960000482d2008582d2000000a0000202520060
:1009700083825a00030031000202420083824a004f
:100980000000a1000603e900f3ff3a0000000600a2
:10099000881f7800030478000300e00007003d0092
:1009a00060001000e080180060011900e08119006b
:1009b00002003b0001f02d00030037000400070097
:1009c00008f0a70001f0a0004f0478000000060026
:1009d000889fbe008a9fbe000082700004027100e2
:1009e00004827100260032000004be000200be0036
:1009f0006011b8006b092000950220000182cf0031
:100a00000a0039000541b1000082cf00070039001b
:100a10000541b1000982cf00040039000541b10051
:100a20000882cf00010039000541b10005425200a3
:100a3000120032000a003b008281710061016400f3
:100a40008100d1000080d3008984d3000884d300c2
:100a50008b05e8000442e800f7ff3a000700370082
:100a60000804440089844c0000004800818048004c
:100a70008b05e9000442e900f9ff3a002dff070069
:100a80004f05be004f04be0000000600ee87470081
:100a9000889fbe008a9fbe008c9fbe008e1f78007c
:100aa000f0b79f0001067800820578000004780006
:100ab000080578000a047800b84678000d00fb00ad
:100ac0008c0007000000e000f9ff3a00d0c2b3003c
:100ad00080cf56000300320000c0e90080cf5600ee
:100ae00002003a000a05e80001003700804678005d
:100af0000b00e00005003500e18f550003003200d7
:100b000040022000808f5500060034006044b80089
:100b10000c00e000700032007fb09700000e7800fb
:100b20006d0037000b00e0000e003200f08f550022
:100b30001a003a0000c3b3009a4f100017003a00a1
:100b40001a40900081c7b300814f5000030032006b
:100b500081c5b300814f500010003a000a85e800bb
:100b60000e003700ab00200000c3b3009a4f100006
:100b70000a003a001a40900081c7b300814f50002c
:100b8000040032008b00200081c5b300814f50006b
:100b900002003a000a85e8000b0120000a007800f4
:100ba000000278000400780001c3b300b0cf100049
:100bb000fbff3200040778006044b800b4b79f0020
:100bc0000d0037000180200081405000c1ef9f00e0
:100bd0006159b9000800be00610407004fea9700a0
:100be0000401fb00cf91de00c8b79f00d9b79f007a
:100bf00002044000838448008e0278003e00fb001f
:100c000085bf9f00430007000b017800800078003b
:100c1000008020003f0207008fba97000000e0002c
:100c2000e8ff3a003fb29700850f550005003a00f3
:100c30006044b8000c00e00027003200ffb29700cb
:100c400024003700048252005082200060c07d00e2
:100c50000000fb00000252001700330011003a00b0
:100c60004fe997000200fb00cf80de000000540037
:100c700081805c00800f5400818f5c000900390086
:100c80006159b90085bf9f0031ff07008fba9700f7
:100c90004fb19700dfb19700820f5000838f58004b
:100ca0000500320020022000304488000084eb0060
:100cb0008084eb0005003700d0c2b30080cf56001f
:100cc00002003a0060041400e0841c000c00e00004
:100cd00001003200050e78000800be004f077800c2
:100ce0004f06be004f05be004f04be00ef00b1002e
:100cf000000006006900e100040035006d00e1001d
:100d0000030034000002b1000100320000000500c1
:100d100010000500800078001104b10003003500c8
:100d20009101b10001003c000050a000000006004d
:100d3000404480000000e00001003200000001009b
:100d40006088200000000600881f780002047800f8
:100d500008017800f9010700080040004f047800fe
:100d6000000006000000fa00881f780000047800e8
:100d7000ea8157003fb9970088007800406a200058
:100d8000070007000000e000020035008040eb0093
:100d9000017478004f0478000080fa00000006001b
:100da0006200fa00889fbe008a1f78000005780064
:100db00081047800020478008300780080f92f0015
:100dc0000f004000e10307009a979f00a9979f003a
:100dd0000000eb00b09f9f001885fb008a04fb0019
:100de0000a05ea004f55de0050022000808f5400b3
:100df0000d003200e10f55000b003a000a017800a7
:100e0000880078002f9097009f91970003000100c1
:100e1000a0979f000000e0008e0032003f989700ee
:100e20000000e800b09f9f000a0444005002200028
:100e3000808f5400040032000900e000e6ff3a0011
:100e40003f989700840037000000eb00909f9f00c0
:100e5000809f9f00f0979f00e0979f00d0979f0092
:100e6000c0979f0007003700018820000100500054
:100e7000000040004187200061007800df98970063
:100e800001007000d09f9f0088047800090478005a
:100e9000384578008a00fb0000882000ae0107007a
:100ea0000000e000f0ff3a00a1c2b300814f5500fe
:100eb0000e003a00cf8897000180e900c08f9f00a4
:100ec00010007800c09f9f000000e00005003d007a
:100ed0000000ea00c09f9f005f9897000020a000dc
:100ee000d09f9f000904e8000f003700c09f9f00bb
:100ef0000000eb0005003700f2ff2700820f5000d2
:100f0000020032006a01b900028040000904780042
:100f100088047800b900fb000103b100e98f50009c
:100f2000f5ff3600c09f9f00e0c2b300984f10004d
:100f3000020032000080eb0019003700a0c2b300ad
:100f4000d84f100007003a00cf8897000180e900d1
:100f5000c08f9f0010007800a09f9f000804e80049
:100f6000100037000000eb00a09f9f008800780071
:100f700005003700f3ff2700830f50000200320006
:100f80006a02b9000400410001047800880078007a
:100f90003101fb000203b100e90f5100f5ff3600fb
:100fa000a09f9f00984478008900fb00c086200025
:100fb000690107000000e000020032000804e800b8
:100fc000010037008044eb00c97f9f0080c6b3005a
:100fd00080cf540004003a0098cf14000a003a0071
:100fe0006640500006003700c0c6b30080cf5400f2
:100ff00005003a0098cf140003003a006540400015
:10100000c07f9f000804e8001801fb00e3fb2f00ed
:101010008f81410081f92f008f804000a0f92f00bf
:101020000f004000100007000000e00009003a0037
:10103000e1fb2f008f804000a0f92f000f0040003f
:10104000860207000000e000020035000804e80006
:1010500061ff37000080eb004f0578004f04be00b1
:101060000080fa0000000600889fbe008a1f7800fa
:1010700000047800e0c6b300804f5100c100320088
:1010800015003c006b405000804f5100240032009e
:101090000a003c0070405000804f5100fa003200be
:1010a00065404000804f51006800320050c2b300dc
:1010b000804f51000b013a000701370040c6b300d2
:1010c000804f51001b00320065404000804f5100ae
:1010d00004013a001700370030c7b300804f5100b9
:1010e000e900320007003c0064405000804f51008e
:1010f000560032000040e800804f5100f9003a00ed
:10110000d300370050c7b300804f51004f0032006a
:1011100063404000804f5100f2003a004b0037001e
:101120001181e9008208780078009000124178006f
:10113000ea00370028609000c4c6b300844f500016
:1011400007003a001102780064005200800878001d
:101150001002be004fabde0086037800110037009e
:1011600014c7b300844f500003003200a4c6b3007c
:10117000844f500006003a001102780068005200c7
:10118000800878003002be002003be000500370052
:101190001180e9008008780010027800cfa2de00fc
:1011a000612bb900049cbe000694be00286090002c
:1011b00081c6b300814f50000d00320021c6b3003c
:1011c000814f500004003a000402fb00cfa2de0071
:1011d000612bb9000800370041c7b300814f5000b0
:1011e00003003200e6c04000814f500004003a0086
:1011f000cfa2de00612bb900049cbe000694be00a5
:101200003802be002803be0078009000d1c2b300af
:10121000e00f5200e08f5a00e00f5b00e08f5b00b0
:1012200008003500881090000118a3000200320069
:10123000b1c2b300030037000108a3004c00320024
:1012400001c2b30081717800470037002860900028
:10125000c4c6b300844f500006003a001102780063
:1012600064005200800878001002be006033b800ad
:101270001100370014c7b300844f50000300320040
:10128000a4c6b300844f500006003a001102780053
:1012900068005200800878003002be002003be00c3
:1012a000050037001180e9008008780010027800fe
:1012b0008002eb006033b800049cbe000694be00c0
:1012c0002860900081c6b300814f50000d003200ad
:1012d00021c6b300814f500004003a000482fb0095
:1012e0008002eb006033b8000800370041c7b3004c
:1012f000814f500003003200e6c04000814f500093
:1013000004003a008002eb006033b800049cbe0089
:101310000694be00081090000038a30014003200ac
:101320003802be002803be00e00f5200e08f5a00d2
:10133000e00f5b00e08f5b000d00320080c7b30060
:10134000804f51000300320080c5b300804f510030
:1013500007003a007800900001c3b3008171780063
:101360000000e800827178000000e8007004980036
:1013700078009000808141006304980082407800ea
:101380003e00370028619000c3c6b3001180e90019
:10139000834f5100220032000a003c00e4c151009a
:1013a000834f51002500320083c1e800834f510074
:1013b00013003200e8c15100834f51001e003a0073
:1013c0000a00370043c7b300834f51001b003200af
:1013d000e6c14100834f510018003200e9c15100bd
:1013e000834f510014003a00050037008008780050
:1013f00010007800485c90000848780041003700f1
:101400008008780010007800680a9000cfa2de0003
:10141000612bb9000498be000690be003900370069
:10142000800878001000780068099000cf91de00f5
:101430000288be00330037001180e9008008780080
:1014400010007800680c9000080878002d00370024
:101450001180e9008008780010027800cfa2de0039
:10146000612bb900049cbe000694be007800900079
:10147000808141006304980081c7b30008007800b0
:10148000470007001f0037001180e900800878003e
:10149000100578006a049800d80c90000900e0005c
:1014a00004003d000a00780037000700800478003f
:1014b00007003700090178008000eb000a0078007f
:1014c000140007000000e000010032008a04500010
:1014d000190c98000b00370078009000827178009a
:1014e0000600370078009000808141000204e0008f
:1014f00001003a0052c2b300824978000000e800bf
:10150000700498000000eb004f0578004f04be0007
:101510000000060003003700b0cf100005003200c5
:101520000201e900800178000200e000faff3a00c1
:10153000000005000300780000000600800178002c
:1015400002003700b15978000201e9000200e00012
:10155000fcff3a0000000600020037000304e00030
:10156000060032000001780002007800b0417800e7
:1015700081cf5100f9ff3a00010037000001eb0074
:101580000200780000000600800078000101780069
:101590003104e000fdff3a000000510000000600a9
:1015a000fc874700889fbe008a9fbe008c9fbe00bc
:1015b0008e1f78000006780080c5b30080cf5000f1
:1015c0000a0032007740400080cf50000a0032000d
:1015d0006940400080cf50000b003200b0852000f1
:1015e00080bf9f00ae0020000a003700a2842000c8
:1015f00082bf9f0006003700b385200083bf9f0095
:101600008e00200003003700b485200084bf9f00b7
:101610000e0120003c02be002c03be000605be00e9
:101620000404be0040c6b30080cf50000300320067
:101630006540400080cf50000b003a00e00f5200a0
:10164000e08f5a00e00f5b00e08f5b0006003d007a
:101650006000b8006011b800040450008584580090
:101660000605590087855900e80f5700040032002d
:1016700040002000f00f570038003a00010037000a
:1016800030002000e00f5400e08f5c00e00f5d00b0
:10169000e08f5d0004003a00dc0890008d0120001e
:1016a0000100e000060032008e00e9008880600042
:1016b0008fba9700e5c07800f1ef9f007d01200010
:1016c000800078008100e900050033008b05d1001f
:1016d0000a85d3008984d3000884d300f9ff37003a
:1016e000089ebe000a96be00120037008d06e90073
:1016f0008e00e900848060000fb99700e2c1780095
:1017000082fd2f000f01410003f17e008000780070
:101710008100e900050033008783d1000683d300f0
:101720008582d3000482d300f9ff3700049ebe00f7
:101730000696be003c02be002c03be00e00f520025
:10174000e08f5a00e00f5b00e08f5b008b003400fd
:101750000d00e000e5ff3c00880037002c609000a1
:1017600081c6b300814f50000b00320006003c00e0
:101770000004e00008003200e6c05000814f500035
:101780004e003a0004003700c1c6b300814f50003c
:101790004a003a00210037000800e00004003a0047
:1017a0005c0890008d0120000000e000060032007f
:1017b000110009000e84d8000fb99700e2c078002c
:1017c000f1ef9f007d012000110009000e84d80078
:1017d0000a003700110009000e04d8008d06e90048
:1017e0000e81b900020454008fb8970061417c005b
:1017f00081fd2f008f80400082f07e000004780081
:101800000800e000020032000d00e000f1ff3c00a3
:10181000cfc4de00614db90025003700e00f540051
:10182000e08f5c0004003a005c0890008d0120000d
:101830000000e000070032006171b9000800be003e
:10184000440107008fb99700e3417800f3ef9f0050
:101850007d0120006171b9000800be003cfc07005a
:101860000b0037006171b9000800be007efb070065
:101870008d06e90000f1b900020454000fba970088
:10188000e4427c0084fd2f000f02420005f27e003e
:101890000004be00e00f5000e08f5800020032004c
:1018a0000d00e000efff3c004fcdde008a05780020
:1018b000089ebe000a96be0030003700e00f5400bc
:1018c000e08f5c00e00f5d00e08f5d0004003a00f7
:1018d0005c0890008d0120000000e000090032004b
:1018e0006172b900612bb9000800be000a01be0098
:1018f000c10107000fba970064427800f4ef9f001f
:101900007d0120006172b900612bb9000800be00a2
:101910000a01be00b10107000d0037006172b90075
:10192000612bb9000800be000a01be00b601070025
:101930008d06e90000f2b900040454008fba970044
:1019400065427c0085fd2f008f82420084f27e007c
:10195000009ebe000296be003c04be002c05be00e8
:10196000e00f5400e08f5c00e00f5d00e08f5d0051
:10197000020034000d00e000e8ff3c00e80f5700d3
:1019800010003a000c1090000038a3000d00320047
:10199000f78f560006003e0085fd2f008f82420023
:1019a000e5c07e0000c3b30080cf500005003200c8
:1019b0008d06e90002c3b30081fd2f008f80400037
:1019c00082f07e0078811600120e98006c00900064
:1019d00083fd2f008f8141008d804100d7fe0700dd
:1019e0001c089000dc089000810f500006003d00ac
:1019f00000805000000e98000c1090000040a100e4
:101a0000001698000f0037000100e0000d003d00b7
:101a10008c109000f4806000f08f500009003a00b4
:101a20007c099000fc009000810051000c0990009e
:101a300082805000008050004240a9000100340024
:101a4000000e98004f0778004f06be004f05be00fd
:101a50004f04be00cf01b100000006000400fa00f0
:101a6000889fbe008a9fbe008c1f7800000478000b
:101a700001067800f80d90007800900080855500f0
:101a80000808900080855500180890008085550052
:101a90002808900080855500380890008085550002
:101aa00048089000808555000002220090bf9f00ea
:101ab00000032300a0bf9f00081090000028a3008f
:101ac00015003a000b00e000130034000b0578000d
:101ad0008a047800e20f550001003600290020003a
:101ae000c801900009017800ee805700580090006e
:101af00003000100500498000000e0008c00320058
:101b00006808900009004000600c98000905550025
:101b10004240a900eeff3c00780190000200e00086
:101b20000c003400c80190008c0078005800900030
:101b300003000100500498008080eb000000e000ea
:101b40007c003200e808900078009000008040009f
:101b5000600c9800880c90000900e000110034002f
:101b600009057800e28f5400010036002a002000a9
:101b7000c80190000a017800ec80570058009000de
:101b800003000100500498000000e00068003200eb
:101b9000680890000a004000600c98008a84540095
:101ba000edff3700180990000200e0000c0034003f
:101bb000c8019000e8009000580090000300010068
:101bc000500498008080eb000000e00059003200d3
:101bd000e80890001808900000804000600c980011
:101be000a80c90000900e0001100340009057800fd
:101bf000e28f5400010036002a002000c801900046
:101c00000a017800ec8057005800900003000100a2
:101c1000500498000000e000450032006808900081
:101c20000a004000600c98008a845400edff3700e1
:101c3000380990000200e0000e003400e800900037
:101c40001808900080804000c80190005800900063
:101c500003000100500498008080eb000000e000c9
:101c600034003200e80890003808900000804000fe
:101c7000600c9800c80c90000900e00011003400ce
:101c800009057800e28f5400010036002a00200088
:101c9000c80190000a017800ec80570058009000bd
:101ca00003000100500498000000e0002000320012
:101cb000680890000a004000600c98008a84540074
:101cc000edff3700081090008000eb000028a30013
:101cd000180032000b00e000160034008b0478007e
:101ce00009057800e28f5400010036002a00200028
:101cf000c80190000a017800ee805700580090005b
:101d000003000100500498000000e00008003200c9
:101d1000680890000a004000600c98008a84540013
:101d20004240a900eeff3c008000eb0001003700bc
:101d30008080eb00010078004f0678004f05be0060
:101d40004f04be000080fa00000006000108780081
:101d500000000600fefa07000400be0000000600b6
:101d6000020ab900001bb9000200b800810042005d
:101d70008100430000000600889fbe008a9fbe00cd
:101d800030044200b0844a0030054b0090854b007f
:101d90006000b1000898be000a90be000440e10057
:101da00005c8e10006d0e10007d8e10002003100db
:101db000680040001008e8004f05be004f04be0058
:101dc00000000600889fbe008a9fbe003004be004f
:101dd0002005be000418540005985c0006185d003c
:101de00007985d00110020000440e10005c8e100f3
:101df00006d0e10007d8e100010039008000eb00c7
:101e0000108810004f05be004f04be000000060001
:101e10001200fa00889fbe008a9fbe008c9fbe0001
:101e2000e0b79f00f1b79f0082bf9f0093bf9f0064
:101e30000605be000404be000000eb00d0b79f0002
:101e4000c0b79f00b0b79f00a0b79f0090b79f009a
:101e50000006eb005fb19700cfb097008201410010
:101e60003fb097000200e00004003d00370007008b
:101e70007e805700c0ff07000300370033000700d3
:101e80007e805700cfff0700dfb697000d00e0000f
:101e90000c0035006fb29700ffb297000fbb9700a0
:101ea0009fbb970010002000010020006011b800c7
:101eb0000002720081827200020373008383730048
:101ec0001b0007000c06e80001042000810f5600eb
:101ed000e0ff3a000d00e00004003d000802be00f3
:101ee0000a03be007e805700a3ff07005fa897008b
:101ef0000000e00005003a001fb29700afb2970063
:101f00003fb39700cfb39700090007006fb0970069
:101f1000ffb097000fb997009fb997004f06be001a
:101f20004f05be004f04be000080fa00000006000e
:101f30000100070000000600a4b79f00b5b79f008e
:101f4000c6b79f00d7b79f00000006004f09de000c
:101f500082817100b3b79f004f01de008180400095
:101f600082807000a1b79f008fb097004f09de00fc
:101f7000000040000200700090b79f007fa897000b
:101f80004f01de00818040008280700081b79f0099
:101f90000d0007004f3ade00000040000400700012
:101fa000f0af9f00080007000402420085824a004b
:101fb00006034b0087834b00dfff07000802be00cb
:101fc0000a03be00000006002fb29700bfb29700c0
:101fd0004fb39700dfb3970000000600881f78001a
:101fe00018002000881f780089ff07008f87e9000c
:101ff0004f04780000000600801feb0084ff0700fc
:102000008f87e90000000600889fbe008a9fbe00ff
:10201000e00f5000e08f5800e00f5900e08f5900aa
:102020000c003d006044b8006055b800000054004a
:1020300081805c0002015d0083815d00180020004a
:102040001500070008003d00180007000004eb0021
:10205000050037000004eb000f00070002003d0000
:102060001200070018002000dcff07000800e00055
:10207000060032006022b8006033b8000000520051
:1020800081805a0002015b0083815b004f05be0026
:102090004f04be0000000600e00f5200e08f5a001f
:1020a000e00f5b00e08f5b00000006006044b800ba
:1020b0006055b8000402540085825c0006035d0090
:1020c00087835d0000000600889fbe008a9fbe00d7
:1020d0008c1f7800e00f5000e08f5800e00f59008f
:1020e000e08f59000d003d006044b8006055b80015
:1020f0000000540081805c0002015d0083815d006e
:102100001c0020000820e10009a8e1000ab0e1005d
:102110000bb8e1000d003d00080037000006eb00a1
:10212000e00f5200e08f5a00e00f5b00e08f5b0091
:1021300006003d006044b8006055b8000402540039
:1021400085825c0006035d0087835d00aaff0700af
:102150000c00e000060032006022b8006033b800d6
:102160000000520081805a0002015b0083815b0005
:102170004f0678004f05be004f04be000000060069
:020000040000fa
:1021800031350000303a00004f4b00000d0a0000ce
:102190000000000032350000303a00004f4b0000d4
:1021a0000d0a00000000000033350000303a000046
:1021b0004f4b00000d0a0000000000003435000005
:1021c000303a00003c53000050200000566f0000e1
:1021d0006c74000061670000653e00000d0a00009d
:1021e0000000000054520000414e0000534d00001a
:1021f0004954000020450000525200004f52000098
:102200000d0a000000000000245000004d540000a2
:102210004b330000313400002c3000002c31000022
:102220002c3000002c3000002c3000002c3000003e
:102230002c3000002c3000002c3000002c3000002e
:102240002c3000002c3000002c3000002c3000001e
:102250002c3000002c3000002c3000002c3000000e
:102260002c3000002a320000390d00000a00000066
:1022700031350000303a00002573000000000000f6
:1022800033350000303a0000256400002043000090
:102290000d0a000000330000353000003a25000030
:1022a000642000006d4200000d0a000000000000e4
:0c22b00025730000256400000000000001
:020000040000fa
:1022bc000200fa00700220002010880007e2a9003a
:1022cc000722a8008620a90007e2a80000108000c1
:1022dc00000f7800340007000080fa0000000600b0
:1022ec000200fa000000eb00000f78000622a800a4
:1022fc0007003700400020000100200023050700e4
:10230c001e0fe8001e007800f40f500005003c0082
:10231c0030108000620060000000e000f5ff3a0021
:10232c0001003700000000008000200001002000a8
:10233c00160507000080fa00000006000200fa00f3
:10234c000000eb00000f780006a2a900800220001c
:10235c00010020000d0507000602a8000700370049
:10236c004000200001002000080507001e0fe800b7
:10237c001e007800f40f500005003c003010800067
:10238c00610060000000e000f5ff3a00010037003a
:10239c00000000008000200001002000fb0407006a
:1023ac000080fa00000006000200fa000000eb00ba
:1023bc00000f78000642a8000700370040002000fc
:1023cc0001002000f10407001e0fe8001e00780039
:1023dc00f40f500005003c003010800064006000d9
:1023ec000000e000f5ff3a0001003700000000009b
:1023fc000662a9008620a90008e2a9000942a900ea
:10240c008002200001002000e00407000080fa0098
:10241c00000006000400fa001007980000000000fd
:10242c0040108000610060000000e000fcff3a00fa
:10243c008620a9001e009000101088000000eb0000
:10244c00000f7800090037004110800000002400c4
:10245c00008060000000e000090032004000200015
:10246c0001002000c90407001e0fe800301f2000e7
:10247c009e007800808f5000f3ff3400010037007d
:10248c0000000000401f20009e007800808f50004c
:10249c0002003a0010c0b3000c003700411080005d
:1024ac0000002800008060000000e0000300320003
:1024bc00bdff070010c0b3000400370080002000ef
:1024cc0001002000b10407000040eb000080fa007e
:1024dc00000006000400fa000000eb00000f78007a
:1024ec000040eb00204798000662a800050037006a
:1024fc001e0fe800007d20009e007800808f5000a9
:10250c0005003c0040108000620060000000e0000c
:10251c00f7ff3200010037000000000000108000bf
:10252c00204798002e4090000080fa000000060022
:10253c000400fa000000eb00000f78000040eb00f4
:10254c00204798000662a800050037001e0fe8001f
:10255c00007d20009e007800808f500005003c001c
:10256c0040108000620060000000e000f7ff3200c5
:10257c000100370000000000001080002047980088
:10258c000682a80080022000010020007f040700c2
:10259c002e4090000080fa00000006000400fa00b3
:1025ac00204798000040eb00004f780063ff0700c5
:1025bc002e4090000000fb0096ff0700004f7800b3
:1025cc0079ff07001e4078000080fa00000006002a
:1025dc000600fa0020479800210798008e0078002a
:1025ec002e409000060007001e0078008000780046
:1025fc002e009000010878000080fa000000060010
:10260c000400fa00004f7800110798001e0090009b
:10261c00800078001e4078000d0007000080fa0052
:10262c00000006000800fa004047980031079800a7
:10263c008e0078004e409000050007001e00be0082
:10264c003e0190000089be000080fa0000000600e8
:10265c000400fa00889fbe00004f78001107980014
:10266c0036ff0700e00e20006aff07001e00fb008b
:10267c0068ff07001aff0700f00e200065ff070037
:10268c00abff07000000fb00cf80de001e019000b6
:10269c000089be001e0090001000be00480cdd003a
:1026ac00c804de00890474004804dd0089ff0700bb
:1026bc000000fb00cf80de0008004000898048004d
:1026cc001e0190000089be0037ff07004f04be00ba
:1026dc000080fa00000006001600fa00200f980097
:1026ec00af010700008fbe002e0890005000900034
:1026fc008000eb003e011000ae8118002e08900007
:10270c00400090008000eb00009ab90004027800b1
:10271c00028bb90086027800050242000010b80056
:10272c0001024200840078004109dd004f00de0008
:10273c0000007100cf88de00200798003107980058
:10274c002e08900010089000cf80de004b0add00b0
:10275c00c502de00850272004b02dd002e089000df
:10276c00200890006101b9002e009000be0090007e
:10277c0002004000838048000001be000400be003f
:10278c00b6f7070040079800510798002e019000fb
:10279c00be0190004e009000de0090000200400050
:1027ac008380480060079800710798006e009000c5
:1027bc00fe00900068004000e08048004c09dd00fd
:1027cc004400de0000007100c488de00000f980099
:1027dc00110f98000e0890009e0890000080fa00df
:1027ec00000006002e00fa00601798006c0107002c
:1027fc0020079800310798007b01070040079800dc
:10280c00510798006e109000500090008000eb0073
:10281c002e019000be0190000001510081815900f1
:10282c006e109000400090008000eb00009ab90000
:10283c0004027800028bb90086027800050242007f
:10284c000010b80001024200840078004109dd004c
:10285c004f00de0000007100cf88de00600798009a
:10286c00710798006e10900010089000cf80de0069
:10287c004b0add00c502de00850272004b02dd0052
:10288c006e109000200890006101b9006e0090005d
:10289c00fe00900002004000838048000001be0052
:1028ac000400be006df70700000f9800110f980090
:1028bc006e019000fe0190000e0890009e089000a2
:1028cc000200400083804800200f9800310f9800d0
:1028dc002e099000be09900000062f00f1ff2f007a
:1028ec000200400083804800400f9800510f980070
:1028fc006e109000700090006101b900de0890002d
:10290c004e0890000088b90000027800de089000a4
:10291c004e0890000088b9000000780000024200c8
:10292c00ce0890004e0890000008b800010242004a
:10293c0084007800440add004c00de0000007200c8
:10294c00cc88de00009ab90004027800028bb90032
:10295c0086027800050242000010b8000102420015
:10296c00840078004509dd004b00de00000071009a
:10297c00cb88de0060079800710798006e109000fd
:10298c0010009000cf80de004e0990000191b9003c
:10299c0002017800de099000009ab90084017800e9
:1029ac0003014100ce0990000018b800010141005c
:1029bc0082007800450add004b00de00000072004a
:1029cc00cb88de00000f9800110f98006e0190006c
:1029dc00fe0190000e0890009e089000020040003e
:1029ec0083804800600f9800710f98006e10900063
:1029fc0010007800cf80de004209dd00ce01de0041
:102a0c00830171004201dd006e089000fe08900009
:102a1c00020040008380480062004000e0804800d3
:102a2c00e00f5000e08f580002003d0063004000b2
:102a3c00e08048004e09dd004200de00000071001d
:102a4c00c288de0000179800111798006e109000d5
:102a5c0020009000cf80de004e0990000191b9005b
:102a6c0002017800de099000009ab9008401780018
:102a7c0003014100ce0990000018b800010141008b
:102a8c0082007800430add004d00de000000720079
:102a9c00cd88de0060079800710798006e109000da
:102aac00600090006101b900de0890004e089000b3
:102abc000088b90000027800de0890004e089000f3
:102acc000088b9000000780000024200ce08900097
:102adc004e0890000008b800010242008400780003
:102aec00440add004c00de0000007200cc88de00e1
:102afc00009ab90004027800028bb90086027800b3
:102b0c00050242000010b800010242008400780067
:102b1c004088de00cf80de00000f9800110f980077
:102b2c006e019000fe0190000e0890009e0890002f
:102b3c00020040008380480062004000e0804800b2
:102b4c00e00f5000e08f580002003d006300400091
:102b5c00e08048004e09dd004200de0000007100fc
:102b6c00c288de00600f9800710f98006e10900004
:102b7c00300090006101b8006e0a9000fe0a9000cf
:102b8c00000028000100200004004000858048005f
:102b9c00009ab90004027800028bb9008602780012
:102bac00050242000010b8000102420084007800c7
:102bbc00410add004f00de0000007200cf08de008d
:102bcc0020179800311798004e019000de019000fc
:102bdc000e1090009e109000000051008180590052
:102bec0002352c000289b900020178006002b9009c
:102bfc00840178000301410003352c000300b80068
:102c0c00010141008200780040179800511798008c
:102c1c0040179800511798004e109000de1090004d
:102c2c00e00f5000e08f5800090035004e10900066
:102c3c00de10900000004000818048002e119000b2
:102c4c00be1190003ff70700008fbe000800370050
:102c5c002e119000be1190004e109000de109000ce
:102c6c0038f707000000400081804800008fbe004c
:102c7c001e00be00c889de00480add004801de00e7
:102c8c00020172001e00be00480add004800de0092
:102c9c0000007200c888de00009ab90004027800b7
:102cac00028bb90086027800050242000010b800c1
:102cbc0001024200840078006007980071079800b8
:102ccc006007980071079800fe009000e0bd20009e
:102cdc000088b900000178006e0090006000b90017
:102cec000000780000014100ee009000e0bd2000e3
:102cfc000008b80001014100820078004088de0025
:102d0c00cf80de0060079800710798009e0090004d
:102d1c0030342e000088b900000178009e00780045
:102d2c000080eb000088b900000078000001410031
:102d3c009e00780030342e000008b80001014100dc
:102d4c00820078004088de00cf80de00000f980003
:102d5c00110f98006e019000fe0190000e0890007b
:102d6c009e0890000201400083814800f0ec200096
:102d7c000100200002004000838048004c09dd0067
:102d8c004400de0000007100c488de001e0f40000d
:102d9c005e9748001e00be000080fa00000006008e
:102dac000400fa0065fd0700e00e200099fd070005
:102dbc00400f200097fd0700e002200095fd070062
:102dcc0079fd070000652400010020006f02070058
:102ddc008e00780060cfb30012fe07001e00be000c
:102dec000080fa00000006000400fa0053fd070002
:102dfc00e00e200087fd0700400f200085fd070036
:102e0c004003200083fd070067fd070000e224005b
:102e1c00010020005d0207008e00780060cfb30037
:102e2c003c0007001e00be000080fa0000000600f7
:102e3c000200fa00000f78001e0078008000780075
:102e4c00a0cab300e2fd07001e80e80080007800f5
:102e5c00c0cab300defd07009e007800648040000d
:102e6c0080007800e0cab300d9fd07009e0078000e
:102e7c00668040008000780000cbb300e0fd0700c6
:102e8c009e007800688040008000780020cbb30062
:102e9c00dbfd07009e0078006a804000800078000f
:102eac0040cbb300d6fd07009e0078006c8040003c
:102ebc008000780060cbb300c5fd07009e00780051
:102ecc006e8040008000780080cbb300c0fd07000e
:102edc009e0078007080400080007800a0cbb3008a
:102eec00bbfd07009e0078007280400080007800d7
:102efc00c0cbb300b6fd07009e0078007480400084
:102f0c0080007800e0cbb300b1fd07000080fa0030
:102f1c00000006000800fa004047980031079800ae
:102f2c008e0078004e409000050007001e00be0089
:102f3c003e0190000089be000080fa0000000600ef
:102f4c000800fa004047980031079800fbfc070086
:102f5c00e00e20002ffd07004e4090000000fb000b
:102f6c002cfd0700defc0700f00e200029fd0700f9
:102f7c006ffd0700004f78006dfd070010479800ab
:102f8c006bfd0700204798001e80fb008000eb00c3
:102f9c00c001dd00020020001e4090000082fb00fa
:102fac008002eb004828dd00c820de0081007000a4
:102fbc004820dd0002014000838148002e40900033
:102fcc000080fb008000eb00020040008380480082
:102fdc004809dd004800de0000007100c808de0072
:102fec003e0190000089be00effc07000080fa0053
:102ffc00000006000a00fa0030079800410798000c
:10300c004e009000b4fd0700008fbe001e00be00f5
:10301c00a20020000300200090f50700008fbe00e6
:10302c001e007800404798004e4090000000fb00c6
:10303c00801f780000142900801f78003e0090004b
:10304c0045f70700e48757000080fa0000000600ef
:10305c000a00fa0030079800410798004e009000d3
:10306c00e0fd0700008fbe001e00be0042062000df
:10307c000300200079f50700008fbe009e00780049
:10308c0021079800ae009000811f7800b014290031
:10309c00801f78003e0090002ff70700e487570050
:1030ac000080fa00000006004a01fa0076000700d2
:1030bc0021010700c822a800c842a800005822001d
:1030cc0001002000780007000058220001002000b9
:1030dc00850007005001070075fc07004013200015
:1030ec000e00400052ff07008e010700000f780011
:1030fc001e007800210d2000810f5000400032008e
:10310c00210d2000810f500014003c00e10620002e
:10311c00810f50002d003200e1062000810f50007d
:10312c0007003c0041062000810f50001f003200b8
:10313c0051062000810f50001f0032004e00370056
:10314c00810c2000810f500023003200910c2000d4
:10315c00810f50002300320047003700e11220009d
:10316c00810f500035003200e1122000810f500019
:10317c0007003c00c1122000810f500023003200d8
:10318c00d1122000810f5000230032003a0037008a
:10319c0061132000810f5000310032000119200012
:1031ac00810f50003100320033003700000c290031
:1031bc004d010700330037000e80e8001e010700a8
:1031cc000e80e800480107002e003700000c290093
:1031dc00450107002b003700a00c29004201070015
:1031ec0028003700901220000e004000df0007007e
:1031fc00901220000e0040003b0107002100370018
:10320c00a00c2900380107001e003700400d2900d2
:10321c00350107001b003700411320008e80400051
:10322c00101020000e00400072ff0700101020004c
:10323c000e0040002c010700120037004113200043
:10324c008e804000501120000e00400080ff0700cf
:10325c00501120000e004000230107000900370028
:10326c00400d29002001070006003700e00d290061
:10327c001d01070003003700200f29001a01070069
:10328c0099ff370098ff37000000fa00007a2700fa
:10329c00103a880000002400203a88004827ef00ec
:1032ac000080fa00000006000400fa00008fbe0047
:1032bc001e01be0000092d0031002000a1f5070001
:1032cc00000078000000e9004011880021e2a9000c
:1032dc002022ef002222ef0021e2a8002342a800c6
:1032ec000080fa00000006000400fa00008fbe0007
:1032fc001e01be0000092d003100200091f50700d1
:10330c00000078000000e900c011880031e2a9003b
:10331c003022ef003222ef0031e2a8003342a80045
:10332c000080fa00000006000200fa00004f78004e
:10333c0000000000111180000020200000806000bf
:10334c000000e000fbff3a001e00fb00201188008b
:10335c000080fa00000006000200fa00004f78001e
:10336c00000000009111800000202000008060000f
:10337c000000e000fbff3a001e00fb00a0118800db
:10338c000080fa00000006000200fa001011800014
:10339c00620060000000e000020032002222a9005e
:1033ac000100370000000000101180006100600077
:1033bc000000e000fcff320030118000004f78006c
:1033cc001e4078000080fa00000006000200fa009f
:1033dc0090118000620060000000e00002003200ea
:1033ec003222a9000100370000000000901180007b
:1033fc00610060000000e000fcff3200b0118000b2
:10340c00004f78001e4078000080fa000000060093
:10341c000400fa00100798001e009000104078007d
:10342c00cdff07001e009000104f78001e0090008a
:10343c000000e800100798001e407800ea4f50008a
:0c344c00f5ff3a000080fa0000000600c6
:020000040000fa
:10345800000800004a00000002000000303132007d
:1034680033343500363738003961620063646500eb
:1034780066676800696a6b006c6d6e006f7071003a
:10348800727374007576770078797a00000000000e
:10349800211511000e0d0c000b0b0a000a0909007a
:1034a80009090900080808000808080008070700b3
:1034b80007070700070707000707070007070000b7
:1034c8008608000004000000000000006c080000ee
:1034d8001a00000002000000686a6c00747a4c0050
:1034e80000000100000200000400080000100000b5
:1034f800000020002b2d2300300000004a080000a7
:103508002200000002000000303132003334350060
:103518003637380039414200434445004600300000
:103528003132330034353600373839006162630090
:0c3538006465660000000000e81b8000d5
:020000040000fa
:103544000000fa00f0bf2f00601988002023ef006c
:103554002223ef000010200020198800a0a02000e2
:10356400401988003023ef0021e3a8000080fa000e
:10357400000006000a00fa004007980020532300c8
:1035840001a3230010079800210798000040eb00d6
:10359400604798002023a80000fa200001002000c2
:1035a4007c0007002023a90000000000001980000f
:1035b400610060000000e000fcff320000188000a1
:1035c400004f78001e00fb00cf80de0055f407009a
:1035d400326a200033b52300a8f40700d2cc2c00b3
:1035e400c3dc2300ddf307002df407001047980027
:1035f4001e4090000000fb00801f78000e80e80051
:10360400801f780080152900801f78004e009000ec
:10361400d3f50700e68757000080fa000000060093
:103624000000fa00401029002200070000fa2000e0
:1036340001002000570007000080fa000000060087
:103644000401fa0010079900630f470050ff0700b8
:1036540020479800ae40900040c2b30080cf500095
:10366400faff3a001e007800ae409000014878004e
:103674001e0fe80046ff07009e007800804878008f
:103684001e00780010407800ea4f5000f8ff3a001e
:10369400630f47009e1f780080132900801f780065
:1036a4001e009100aef50700e48757000080fa0081
:1036b400000006000400fa00100798001e009000a5
:1036c400104078001aff07001e009000104f780089
:1036d4001e0090000000e800100798001e407800cb
:1036e400ea4f5000f5ff3a000080fa00000006009f
:1036f4000400fa00100798001e00900010407800a3
:1037040017ff07001e009000104f78001e00900065
:103714000000e800100798001e4078000004e00054
:10372400f5ff3a000080fa00000006000800fa00e5
:103734000040eb00404798000040eb0050479800e1
:103744000040eb00604798000000eb00000f780099
:10375400050037001fff0700e40047009e8040007b
:10376400804878001e0fe8001e007800e20f500029
:10377400f8ff340064004700a20020008000eb0042
:10378400c1f40700100798001e0090000080fa00a2
:04379400000006002b
:020000040000fa
:10379800f03fb1000180b10006003500ee030900da
:1037a80000000000403fb1000180b100fbff3d0078
:1037b8001000b000203fb000020035000080090072
:0837c8000000000000000600f3
:020000040000fa
:0437d00000000000f5
:020000040000fa
:0200000401f009
:04000000ffff0000fe
:020000040000fa
:0200000401f009
:04000800ffff0000f6
:020000040000fa
:0200000401f009
:04000c008700000069
:020000040000fa
:0200000401f009
:04001000bf0000002d
:020000040000fa
:0200000401f009
:040014005f00000089
:020000040000fa
:0200000401f009
:04001800f3000000f1
:020000040000fa
:0200000401f009
:04001c00c10000001f
:020000040000fa
:0200000401f009
:040020003f0000009d
:00000001FF
