:020000040000fa
:080000000002040000000000f2
:020000040000fa
:04000800a80200004a
:020000040000fa
:04000c00a802000046
:020000040000fa
:04001000a802000042
:020000040000fa
:04001400a80200003e
:020000040000fa
:04001800a80200003a
:020000040000fa
:04001c00a802000036
:020000040000fa
:04002000a802000032
:020000040000fa
:04002400a80200002e
:020000040000fa
:04002800a80200002a
:020000040000fa
:04002c00a802000026
:020000040000fa
:04003000a802000022
:020000040000fa
:04003400a80200001e
:020000040000fa
:04003800a80200001a
:020000040000fa
:04003c00a802000016
:020000040000fa
:04004000a802000012
:020000040000fa
:04004400a80200000e
:020000040000fa
:04004800a80200000a
:020000040000fa
:04004c00a802000006
:020000040000fa
:04005000a802000002
:020000040000fa
:04005400a8020000fe
:020000040000fa
:04005800a8020000fa
:020000040000fa
:04005c00a8020000f6
:020000040000fa
:04006000a8020000f2
:020000040000fa
:04006400a8020000ee
:020000040000fa
:04006800a8020000ea
:020000040000fa
:04006c00a8020000e6
:020000040000fa
:04007000a8020000e2
:020000040000fa
:04007400a8020000de
:020000040000fa
:04007800a8020000da
:020000040000fa
:04007c00a8020000d6
:020000040000fa
:04008000a8020000d2
:020000040000fa
:04008400a8020000ce
:020000040000fa
:04008800a8020000ca
:020000040000fa
:04008c00a8020000c6
:020000040000fa
:04009000a8020000c2
:020000040000fa
:04009400a8020000be
:020000040000fa
:04009800a8020000ba
:020000040000fa
:04009c00a8020000b6
:020000040000fa
:0400a000a8020000b2
:020000040000fa
:0400a400a8020000ae
:020000040000fa
:0400a800a8020000aa
:020000040000fa
:0400ac00a8020000a6
:020000040000fa
:0400b000a8020000a2
:020000040000fa
:0400b400a80200009e
:020000040000fa
:0400b800a80200009a
:020000040000fa
:0400bc00a802000096
:020000040000fa
:0400c000a802000092
:020000040000fa
:0400c400a80200008e
:020000040000fa
:0400c800a80200008a
:020000040000fa
:0400cc00a802000086
:020000040000fa
:0400d000a802000082
:020000040000fa
:0400d400a80200007e
:020000040000fa
:0400d800a80200007a
:020000040000fa
:0400dc00a802000076
:020000040000fa
:0400e000a802000072
:020000040000fa
:0400e400a80200006e
:020000040000fa
:0400e800a80200006a
:020000040000fa
:0400ec00a802000066
:020000040000fa
:0400f000a802000062
:020000040000fa
:0400f400a80200005e
:020000040000fa
:0400f800a80200005a
:020000040000fa
:0400fc00a802000056
:020000040000fa
:04010000a802000051
:020000040000fa
:04010400a80200004d
:020000040000fa
:04010800a802000049
:020000040000fa
:04010c00a802000045
:020000040000fa
:04011000a802000041
:020000040000fa
:04011400a80200003d
:020000040000fa
:04011800a802000039
:020000040000fa
:04011c00a802000035
:020000040000fa
:04012000a802000031
:020000040000fa
:04012400a80200002d
:020000040000fa
:04012800a802000029
:020000040000fa
:04012c00a802000025
:020000040000fa
:04013000a802000021
:020000040000fa
:04013400a80200001d
:020000040000fa
:04013800a802000019
:020000040000fa
:04013c00a802000015
:020000040000fa
:04014000a802000011
:020000040000fa
:04014400a80200000d
:020000040000fa
:04014800a802000009
:020000040000fa
:04014c00a802000005
:020000040000fa
:04015000a802000001
:020000040000fa
:04015400a8020000fd
:020000040000fa
:04015800a8020000f9
:020000040000fa
:04015c00a8020000f5
:020000040000fa
:04020800a802000048
:020000040000fa
:04020c00a802000044
:020000040000fa
:04021000a802000040
:020000040000fa
:04021400a80200003c
:020000040000fa
:04021800a802000038
:020000040000fa
:04021c00a802000034
:020000040000fa
:04022000a802000030
:020000040000fa
:04022400a80200002c
:020000040000fa
:04022800a802000028
:020000040000fa
:04022c00a802000024
:020000040000fa
:04023000a802000020
:020000040000fa
:04023400a80200001c
:020000040000fa
:04023800a802000018
:020000040000fa
:04023c00a802000014
:020000040000fa
:04024000a802000010
:020000040000fa
:04024400a80200000c
:020000040000fa
:04024800a802000008
:020000040000fa
:04024c00a802000004
:020000040000fa
:04025000a802000000
:020000040000fa
:04025400a8020000fc
:020000040000fa
:04025800a8020000f8
:020000040000fa
:04025c00a8020000f4
:020000040000fa
:04026000a8020000f0
:020000040000fa
:04026400a8020000ec
:020000040000fa
:04026800a8020000e8
:020000040000fa
:04026c00a8020000e4
:020000040000fa
:04027000a8020000e0
:020000040000fa
:04027400a8020000dc
:020000040000fa
:04027800a8020000d8
:020000040000fa
:04027c00a8020000d4
:020000040000fa
:04028000a8020000d0
:020000040000fa
:04028400a8020000cc
:020000040000fa
:04028800a8020000c8
:020000040000fa
:04028c00a8020000c4
:020000040000fa
:04029000a8020000c0
:020000040000fa
:04029400a8020000bc
:020000040000fa
:04029800a8020000b8
:020000040000fa
:04029c00a8020000b4
:020000040000fa
:0402a000a8020000b0
:020000040000fa
:0402a400a8020000ac
:020000040000fa
:0402a800a8020000a8
:020000040000fa
:0402ac00a8020000a4
:020000040000fa
:0402b000a8020000a0
:020000040000fa
:0402b400a80200009c
:020000040000fa
:0402b800a802000098
:020000040000fa
:0402bc00a802000094
:020000040000fa
:0402c000a802000090
:020000040000fa
:0402c400a80200008c
:020000040000fa
:0402c800a802000088
:020000040000fa
:0402cc00a802000084
:020000040000fa
:0402d000a802000080
:020000040000fa
:0402d400a80200007c
:020000040000fa
:0402d800a802000078
:020000040000fa
:0402dc00a802000074
:020000040000fa
:0402e000a802000070
:020000040000fa
:0402e400a80200006c
:020000040000fa
:0402e800a802000068
:020000040000fa
:0402ec00a802000064
:020000040000fa
:0402f000a802000060
:020000040000fa
:0402f400a80200005c
:020000040000fa
:0402f800a802000058
:020000040000fa
:0402fc00a802000054
:020000040000fa
:04030000a80200004f
:020000040000fa
:04030400a80200004b
:020000040000fa
:04030800a802000047
:020000040000fa
:04030c00a802000043
:020000040000fa
:04031000a80200003f
:020000040000fa
:04031400a80200003b
:020000040000fa
:04031800a802000037
:020000040000fa
:04031c00a802000033
:020000040000fa
:04032000a80200002f
:020000040000fa
:04032400a80200002b
:020000040000fa
:04032800a802000027
:020000040000fa
:04032c00a802000023
:020000040000fa
:04033000a80200001f
:020000040000fa
:04033400a80200001b
:020000040000fa
:04033800a802000017
:020000040000fa
:04033c00a802000013
:020000040000fa
:04034000a80200000f
:020000040000fa
:04034400a80200000b
:020000040000fa
:04034800a802000007
:020000040000fa
:04034c00a802000003
:020000040000fa
:04035000a8020000ff
:020000040000fa
:04035400a8020000fb
:020000040000fa
:04035800a8020000f7
:020000040000fa
:04035c00a8020000f3
:020000040000fa
:10040000ef8420000edf20000e01880000000000b5
:10041000000020000000e000020032000001200087
:10042000200288000c00070060da20000100200094
:1004300011000700000020000000e0000200320070
:100440000000020000000000c80b020000000000d5
:100450000040da000000fe004440a900e00b20004c
:100460000000e0000300320000002000a00188002e
:100470004440a80000000600910188008000780038
:100480000000eb0015003700e280400032a0b4000d
:100490009101ba00e280400032a0b4009102ba009b
:1004a000e280400032a0b4000002eb00472bde00e7
:1004b000f507b200602ce10004003a000059eb009f
:1004c0008301e900fdff3e00040037006128e100e0
:1004d000010032000082eb000b00070011c3ba00dc
:1004e0001101ba000604e00003003a000200e00037
:1004f000e5ff3a0000000600f607b200960188000a
:1005000082007800f5ff37003159ba008301e90015
:100510000c0032002159ba008301e90008003200c2
:100520000400e00003003a00e280400032a0b40082
:10053000f5ff370011d9ba008301e900faff3a004c
:100540008100e800e180400032a0b4000000060015
:100550000040da000000fe00839f68000100e00018
:1005600002003d0060001000e08018000300e00081
:1005700002003d0060011100e08119000500070044
:100580004f00e00002003b0060001000e080180017
:10059000000006006022b800060220000000d00023
:1005a0008180d2000482d2008582d2000000a000a7
:1005b0000202520083825a0003003100020242000c
:1005c00083824a000000a1000603e900f3ff3a001d
:1005d00000000600ee874700889fbe008a9fbe008d
:1005e0008c9fbe008e1f7800f0b79f000106780038
:1005f0008205780000047800080578000a04780075
:10060000b84678000d00fb008c0007000000e000f9
:10061000f9ff3a00d0c2b30080cf56000300320089
:1006200000c0e90080cf560002003a000a05e80049
:1006300001003700804678000b00e000050035001f
:10064000e18f55000300320040022000808f5500ea
:10065000060034006044b8000c00e0007000320076
:100660007fb09700000e78006d0037000b00e000af
:100670000e003200f08f55001a003a0000c3b3009c
:100680009a4f100017003a001a40900081c7b3003b
:10069000814f50000300320081c5b300814f5000ec
:1006a00010003a000a85e8000e003700ab00200079
:1006b00000c3b3009a4f10000a003a001a4090009d
:1006c00081c7b300814f5000040032008b0020002e
:1006d00081c5b300814f500002003a000a85e8004e
:1006e0000b0120000a007800000278000400780066
:1006f00001c3b300b0cf1000fbff32000407780045
:100700006044b800b4b79f000d003700018020009e
:1007100081405000c1ef9f006159b9000800be0040
:10072000650007004fea97000401fb00cf91de004f
:10073000c8b79f00d9b79f000204400083844800d7
:100740008e0278003e00fb0085bf9f00430007003b
:100750000b01780080007800008020004c0007002a
:100760008fba97000000e000e8ff3a003fb2970020
:10077000850f550005003a006044b8000c00e00009
:1007800027003200ffb29700240037000482520095
:100790005082200060c07d000000fb00000252007b
:1007a0001700330011003a004fe997000200fb00e8
:1007b000cf80de000000540081805c00800f540078
:1007c000818f5c00090039006159b90085bf9f0025
:1007d00070ff07008fba97004fb19700dfb1970005
:1007e000820f5000838f5800050032002002200045
:1007f000504288000084eb008084eb000500370045
:10080000d0c2b30080cf560002003a00600414004a
:10081000e0841c000c00e00001003200050e7800ae
:100820000800be004f0778004f06be004f05be000f
:100830004f04be00ef00b100000006006900e100b7
:10084000040035006d00e100030034000002b10037
:100850000100320000000500100005008000780053
:100860001104b100030035009101b10001003c000a
:100870000050a00000000600604280000000e00080
:100880000100320000000100a084200000000600ea
:1008900003003700b0cf1000050032000201e9006c
:1008a000800178000200e000faff3a000000050035
:1008b0000300780000000600020ab900001bb9001e
:1008c0000200b800810042008100430000000600e1
:020000040000fa
:1008d00031350000303a00004f4b000000000000ae
:1008e00031350000303a00003c4e00004d4500001c
:1008f00041200000536500006e740000656e00002a
:10090000636500003e00000000320000353000004a
:100910003a4f00004b00000000320000353000006c
:100920003a3c000055560000204900006e6400006b
:10093000657800003e000000003300003530000004
:100940003a4f00004b00000000330000353000003b
:100950003a3c0000546500006d70000065720000b4
:1009600061740000757200006528000043290000d2
:100970003e00000000330000353000003a3c00002b
:10098000507200006573000073750000726500000e
:10099000286d0000422900003e00000000340000e5
:1009a000353000003a3c0000535000002056000053
:1009b0006f6c000074610000676500003e0000007d
:1009c00000540000524100004e5300004d49000009
:1009d0005420000045520000524f00005200000019
:1009e00000000000245000004d5400004b33000074
:1009f000313400002c3000002c3100002c3000007d
:100a00002c3000002c3000002c3000002c30000076
:100a10002c3000002c3000002c3000002c30000066
:100a20002c3000002c3000002c3000002c30000056
:100a30002c3000002c3000002c3000002c30000046
:0c0a40002a320000390d00000a000000fe
:020000040000fa
:100a4c000200fa00700220002010880007e2a900c2
:100a5c000722a8008620a90007e2a8000010800049
:100a6c00000f7800340007000080fa000000060038
:100a7c000200fa000000eb00000f78000622a8002c
:100a8c000700370040002000010020007c04070014
:100a9c001e0fe8001e007800f40f500005003c000b
:100aac0030108000620060000000e000f5ff3a00aa
:100abc000100370000000000800020000100200031
:100acc006f0407000080fa00000006000200fa0024
:100adc000000eb00000f780006a2a90080022000a5
:100aec0001002000660407000602a800070037007a
:100afc004000200001002000610407001e0fe800e8
:100b0c001e007800f40f500005003c0030108000ef
:100b1c00610060000000e000f5ff3a0001003700c2
:100b2c000000000080002000010020005404070099
:100b3c000080fa00000006000200fa000000eb0042
:100b4c00000f78000642a800070037004000200084
:100b5c00010020004a0407001e0fe8001e00780068
:100b6c00f40f500005003c00301080006400600061
:100b7c000000e000f5ff3a00010037000000000023
:100b8c000662a9008620a90008e2a9000942a90072
:100b9c008002200001002000390407000080fa00c8
:100bac00000006000400fa00100798000000000086
:100bbc0040108000610060000000e000fcff3a0083
:100bcc008620a9001e009000101088000000eb0089
:100bdc00000f78000900370041108000000024004d
:100bec00008060000000e00009003200400020009e
:100bfc0001002000220407001e0fe800301f200017
:100c0c009e007800808f5000f3ff34000100370005
:100c1c0000000000401f20009e007800808f5000d4
:100c2c0002003a0010c0b3000c00370041108000e5
:100c3c0000002800008060000000e000030032008b
:100c4c00bdff070010c0b300040037008000200077
:100c5c00010020000a0407000040eb000080fa00ad
:100c6c00000006000400fa000000eb00000f780002
:100c7c000040eb00204798000662a80005003700f2
:100c8c001e0fe800007d20009e007800808f500031
:100c9c0005003c0040108000620060000000e00095
:100cac00f7ff320001003700000000000010800048
:100cbc00204798002e4090000080fa0000000600ab
:100ccc000400fa000000eb00000f78000040eb007d
:100cdc00204798000662a800050037001e0fe800a8
:100cec00007d20009e007800808f500005003c00a5
:100cfc0040108000620060000000e000f7ff32004e
:100d0c000100370000000000001080002047980010
:100d1c000682a8008002200001002000d8030700f2
:100d2c002e4090000080fa00000006000400fa003b
:100d3c00204798000040eb00004f780063ff07004d
:100d4c002e4090000000fb0096ff0700004f78003b
:100d5c0079ff07001e4078000080fa0000000600b2
:100d6c000600fa0020479800210798008e007800b2
:100d7c002e409000060007001e00780080007800ce
:100d8c002e009000010878000080fa000000060098
:100d9c000400fa00004f7800110798001e00900024
:100dac00800078001e4078000d0007000080fa00db
:100dbc00000006000800fa00404798003107980030
:100dcc008e0078004e409000050007001e00be000b
:100ddc003e0190000089be000080fa000000060071
:100dec000400fa00889fbe00004f7800110798009d
:100dfc0036ff0700e00e20006aff07001e00fb0014
:100e0c0068ff07001aff0700f00e200065ff0700bf
:100e1c00abff07000000fb00cf80de001e0190003e
:100e2c000089be001e0090001000be00480cdd00c2
:100e3c00c804de00890474004804dd0089ff070043
:100e4c000000fb00cf80de000800400089804800d5
:100e5c001e0190000089be0037ff07004f04be0042
:100e6c000080fa00000006001600fa00200f98001f
:100e7c00af010700008fbe002e08900050009000bc
:100e8c008000eb003e011000ae8118002e0890008f
:100e9c00400090008000eb00009ab900040278003a
:100eac00028bb90086027800050242000010b800df
:100ebc0001024200840078004109dd004f00de0091
:100ecc0000007100cf88de002007980031079800e1
:100edc002e08900010089000cf80de004b0add0039
:100eec00c502de00850272004b02dd002e08900068
:100efc00200890006101b9002e009000be00900007
:100f0c0002004000838048000001be000400be00c7
:100f1c008efd070040079800510798002e019000a5
:100f2c00be0190004e009000de00900002004000d8
:100f3c008380480060079800710798006e0090004d
:100f4c00fe00900068004000e08048004c09dd0085
:100f5c004400de0000007100c488de00000f980021
:100f6c00110f98000e0890009e0890000080fa0067
:100f7c00000006002e00fa00601798006c010700b4
:100f8c0020079800310798007b0107004007980064
:100f9c00510798006e109000500090008000eb00fc
:100fac002e019000be01900000015100818159007a
:100fbc006e109000400090008000eb00009ab90089
:100fcc0004027800028bb900860278000502420008
:100fdc000010b80001024200840078004109dd00d5
:100fec004f00de0000007100cf88de006007980023
:100ffc00710798006e10900010089000cf80de00f2
:10100c004b0add00c502de00850272004b02dd00da
:10101c006e109000200890006101b9006e009000e5
:10102c00fe00900002004000838048000001be00da
:10103c000400be0045fd0700000f9800110f98003a
:10104c006e019000fe0190000e0890009e0890002a
:10105c000200400083804800200f9800310f980058
:10106c002e099000be09900000062f00f1ff2f0002
:10107c000200400083804800400f9800510f9800f8
:10108c006e109000700090006101b900de089000b5
:10109c004e0890000088b90000027800de0890002d
:1010ac004e0890000088b900000078000002420051
:1010bc00ce0890004e0890000008b80001024200d3
:1010cc0084007800440add004c00de000000720051
:1010dc00cc88de00009ab90004027800028bb900bb
:1010ec0086027800050242000010b800010242009e
:1010fc00840078004509dd004b00de000000710023
:10110c00cb88de0060079800710798006e10900085
:10111c0010009000cf80de004e0990000191b900c4
:10112c0002017800de099000009ab9008401780071
:10113c0003014100ce0990000018b80001014100e4
:10114c0082007800450add004b00de0000007200d2
:10115c00cb88de00000f9800110f98006e019000f4
:10116c00fe0190000e0890009e08900002004000c6
:10117c0083804800600f9800710f98006e109000eb
:10118c0010007800cf80de004209dd00ce01de00c9
:10119c00830171004201dd006e089000fe08900092
:1011ac00020040008380480062004000e08048005c
:1011bc00e00f5000e08f580002003d00630040003b
:1011cc00e08048004e09dd004200de0000007100a6
:1011dc00c288de0000179800111798006e1090005e
:1011ec0020009000cf80de004e0990000191b900e4
:1011fc0002017800de099000009ab90084017800a1
:10120c0003014100ce0990000018b8000101410013
:10121c0082007800430add004d00de000000720001
:10122c00cd88de0060079800710798006e10900062
:10123c00600090006101b900de0890004e0890003b
:10124c000088b90000027800de0890004e0890007b
:10125c000088b9000000780000024200ce0890001f
:10126c004e0890000008b80001024200840078008b
:10127c00440add004c00de0000007200cc88de0069
:10128c00009ab90004027800028bb900860278003b
:10129c00050242000010b8000102420084007800f0
:1012ac004088de00cf80de00000f9800110f980000
:1012bc006e019000fe0190000e0890009e089000b8
:1012cc00020040008380480062004000e08048003b
:1012dc00e00f5000e08f580002003d00630040001a
:1012ec00e08048004e09dd004200de000000710085
:1012fc00c288de00600f9800710f98006e1090008d
:10130c00300090006101b8006e0a9000fe0a900057
:10131c0000002800010020000400400085804800e7
:10132c00009ab90004027800028bb900860278009a
:10133c00050242000010b80001024200840078004f
:10134c00410add004f00de0000007200cf08de0015
:10135c0020179800311798004e019000de01900084
:10136c000e1090009e1090000000510081805900da
:10137c0002352c000289b900020178006002b90024
:10138c00840178000301410003352c000300b800f0
:10139c000101410082007800401798005117980015
:1013ac0040179800511798004e109000de109000d6
:1013bc00e00f5000e08f5800090035004e109000ef
:1013cc00de10900000004000818048002e1190003b
:1013dc00be1190006cfc0700008fbe0008003700a7
:1013ec002e119000be1190004e109000de10900057
:1013fc0065fc07000000400081804800008fbe00a3
:10140c001e00be00c889de00480add004801de006f
:10141c00020172001e00be00480add004800de001a
:10142c0000007200c888de00009ab900040278003f
:10143c00028bb90086027800050242000010b80049
:10144c000102420084007800600798007107980040
:10145c006007980071079800fe009000e0bd200026
:10146c000088b900000178006e0090006000b9009f
:10147c000000780000014100ee009000e0bd20006b
:10148c000008b80001014100820078004088de00ad
:10149c00cf80de0060079800710798009e009000d6
:1014ac0030342e000088b900000178009e007800ce
:1014bc000080eb000088b9000000780000014100ba
:1014cc009e00780030342e000008b8000101410065
:1014dc00820078004088de00cf80de00000f98008c
:1014ec00110f98006e019000fe0190000e08900004
:1014fc009e0890000201400083814800f0ec20001f
:10150c000100200002004000838048004c09dd00ef
:10151c004400de0000007100c488de001e0f400095
:10152c005e9748001e00be000080fa000000060016
:10153c000400fa0065fd0700e00e200099fd07008d
:10154c00400f200097fd0700e002200095fd0700ea
:10155c0079fd07000065240001002000c801070088
:10156c008e00780060cfb30012fe07001e00be0094
:10157c000080fa00000006000400fa0053fd07008a
:10158c00e00e200087fd0700400f200085fd0700be
:10159c004003200083fd070067fd070000e22400e4
:1015ac0001002000b60107008e00780060cfb30068
:1015bc003c0007001e00be000080fa000000060080
:1015cc000200fa00000f78001e00780080007800fe
:1015dc00a0cab300e2fd07001e80e800800078007e
:1015ec00c0cab300defd07009e0078006480400096
:1015fc0080007800e0cab300d9fd07009e00780097
:10160c00668040008000780000cbb300e0fd07004e
:10161c009e007800688040008000780020cbb300ea
:10162c00dbfd07009e0078006a8040008000780097
:10163c0040cbb300d6fd07009e0078006c804000c4
:10164c008000780060cbb300c5fd07009e007800d9
:10165c006e8040008000780080cbb300c0fd070096
:10166c009e0078007080400080007800a0cbb30012
:10167c00bbfd07009e00780072804000800078005f
:10168c00c0cbb300b6fd07009e007800748040000c
:10169c0080007800e0cbb300b1fd07000080fa00b9
:1016ac00000006000800fa00404798003107980037
:1016bc008e0078004e409000050007001e00be0012
:1016cc003e0190000089be000080fa000000060078
:1016dc000800fa004047980031079800fbfc07000f
:1016ec00e00e20002ffd07004e4090000000fb0094
:1016fc002cfd0700defc0700f00e200029fd070082
:10170c006ffd0700004f78006dfd07001047980033
:10171c006bfd0700204798001e80fb008000eb004b
:10172c00c001dd00020020001e4090000082fb0082
:10173c008002eb004828dd00c820de00810070002c
:10174c004820dd0002014000838148002e409000bb
:10175c000080fb008000eb0002004000838048000a
:10176c004809dd004800de0000007100c808de00fa
:10177c003e0190000089be00effc07000080fa00db
:10178c00000006000200fa00c822a8000080eb004e
:10179c00601988005c00070000582200010020003e
:1017ac006100070000202c00110020006e000700d3
:1017bc00c9000700000f78001e007800210d2000e2
:1017cc00810f50003a003200210d2000810f500093
:1017dc0014003c00e1062000810f50002b00320069
:1017ec00e1062000810f500007003c00410620005c
:1017fc00810f50001f00320051062000810f500055
:10180c001f0032003c003700810c2000810f50007b
:10181c0021003200910c2000810f50002100320079
:10182c0035003700e1122000810f500029003200f2
:10183c00e1122000810f500007003c00c112200073
:10184c00810f50001d003200d1122000810f50007a
:10185c001d0032002800370061132000810f50005a
:10186c001f00320001192000810f50001f003200b0
:10187c00210037008046280088000700210037002f
:10188c0000472800850007001e003700804628000e
:10189c00820007001b003700504828007f0007001b
:1018ac0018003700d04828007c00070015003700ce
:1018bc00504828007900070012003700d049280052
:1018cc00760007000f003700504a2800730007000d
:1018dc000c003700b04b28007000070009003700df
:1018ec00d04928006d00070006003700f04c280096
:1018fc006a00070003003700104e2800670007003d
:10190c00abff3700aaff37000000fa00007a27006f
:10191c00103a880000002400203a88004827ef0085
:10192c000080fa00000006000400fa00008fbe00e0
:10193c001e01be0000092d003100200012fb070023
:10194c00000078000000e9004011880021e2a900a5
:10195c002022ef002222ef0021e2a8002342a8005f
:10196c000080fa00000006000400fa00008fbe00a0
:10197c001e01be0000092d003100200002fb0700f3
:10198c00000078000000e900c011880031e2a900d5
:10199c003022ef003222ef0031e2a8003342a800df
:1019ac000080fa00000006000200fa00004f7800e8
:1019bc000000000011118000002020000080600059
:1019cc000000e000fbff3a001e00fb002011880025
:1019dc000080fa00000006000200fa00004f7800b8
:1019ec0000000000911180000020200000806000a9
:1019fc000000e000fbff3a001e00fb00a011880075
:101a0c000080fa00000006000200fa00000000004e
:101a1c0010118000610060000000e000fcff32004b
:101a2c0030118000004f78001e4078000080fa00d2
:101a3c00000006000200fa00000000009011800077
:101a4c00610060000000e000fcff3200b01180007b
:101a5c00004f78001e4078000080fa00000006005d
:101a6c000400fa00100798001e0090001040780047
:101a7c00d9ff07001e009000104f78001e00900048
:101a8c000000e800100798001e407800ea4f500054
:101a9c00f5ff3a000080fa00000006000400fa008e
:101aac00100798001e00900010407800caff070035
:101abc001e009000104f78001e0090000000e800ff
:101acc00100798001e4078000004e000f5ff3a0073
:101adc000080fa00000006000800fa000040eb004d
:101aec00404798000040eb00504798000040eb0046
:101afc00604798000000eb00000f780005003700ed
:101b0c00ccff0700e40047009e804000804878002e
:101b1c001e0fe8001e007800e20f5000f8ff3400a2
:101b2c0064004700a20020008000eb00a6fa07002a
:101b3c00100798001e0090000080fa0000000600bc
:020000040000fa
:101b4c00000800004a0000000200000030313200a2
:101b5c003334350036373800396162006364650010
:101b6c0066676800696a6b006c6d6e006f7071005f
:101b7c00727374007576770078797a000000000033
:101b8c00211511000e0d0c000b0b0a000a0909009f
:101b9c0009090900080808000808080008070700d8
:101bac0007070700070707000707070007070000dc
:101bbc004a0800000400000000000000620e8000d3
:020000040000fa
:101bcc000000fa00e0ff2f0060198800200e2200b0
:101bdc00001988002223ef0000f020002019880053
:101bec002823ef003023ef0021e3a8000080fa0047
:101bfc00000006000200fa002023a80000000000ec
:101c0c0000198000610060000000e000fcff320061
:101c1c0001188000010f78001e0078000080fa0087
:101c2c00000006000000fa00204f28000500070005
:101c3c0000fa200001002000110007000080fa00cb
:101c4c00000006000400fa00100798001e00900027
:101c5c001040780054ff07001e009000104f7800d1
:101c6c001e0090000000e800100798001e4078004d
:101c7c00ea4f5000f5ff3a000080fa000000060021
:020000040000fa
:101c8c00f03fb1000180b10006003500ee03090001
:101c9c0000000000403fb1000180b100fbff3d009f
:101cac001000b000203fb000020035000080090099
:081cbc0000000000000006001a
:020000040000fa
:041cc400000000001c
:020000040000fa
:0200000401f009
:04000000ffff0000fe
:020000040000fa
:0200000401f009
:04000800ffff0000f6
:020000040000fa
:0200000401f009
:04000c008700000069
:020000040000fa
:0200000401f009
:04001000bf0000002d
:020000040000fa
:0200000401f009
:040014005f00000089
:020000040000fa
:0200000401f009
:04001800f3000000f1
:020000040000fa
:0200000401f009
:04001c00c20000001e
:020000040000fa
:0200000401f009
:040020003f0000009d
:00000001FF
