:020000040000fa
:080000000002040000000000f2
:020000040000fa
:04000800ac02000046
:020000040000fa
:04000c00ac02000042
:020000040000fa
:04001000ac0200003e
:020000040000fa
:04001400ac0200003a
:020000040000fa
:04001800ac02000036
:020000040000fa
:04001c00ac02000032
:020000040000fa
:04002000ac0200002e
:020000040000fa
:04002400ac0200002a
:020000040000fa
:04002800ac02000026
:020000040000fa
:04002c00ac02000022
:020000040000fa
:04003000ac0200001e
:020000040000fa
:04003400ac0200001a
:020000040000fa
:04003800ac02000016
:020000040000fa
:04003c00ac02000012
:020000040000fa
:04004000ac0200000e
:020000040000fa
:04004400ac0200000a
:020000040000fa
:04004800ac02000006
:020000040000fa
:04004c00ac02000002
:020000040000fa
:04005000ac020000fe
:020000040000fa
:04005400ac020000fa
:020000040000fa
:04005800ac020000f6
:020000040000fa
:04005c00ac020000f2
:020000040000fa
:04006000ac020000ee
:020000040000fa
:04006400ac020000ea
:020000040000fa
:04006800ac020000e6
:020000040000fa
:04006c00ac020000e2
:020000040000fa
:04007000ac020000de
:020000040000fa
:04007400ac020000da
:020000040000fa
:04007800ac020000d6
:020000040000fa
:04007c00ac020000d2
:020000040000fa
:04008000ac020000ce
:020000040000fa
:04008400ac020000ca
:020000040000fa
:04008800ac020000c6
:020000040000fa
:04008c00ac020000c2
:020000040000fa
:04009000ac020000be
:020000040000fa
:04009400ac020000ba
:020000040000fa
:04009800ac020000b6
:020000040000fa
:04009c00ac020000b2
:020000040000fa
:0400a000ac020000ae
:020000040000fa
:0400a400ac020000aa
:020000040000fa
:0400a800ac020000a6
:020000040000fa
:0400ac00ac020000a2
:020000040000fa
:0400b000ac0200009e
:020000040000fa
:0400b400ac0200009a
:020000040000fa
:0400b800ac02000096
:020000040000fa
:0400bc00ac02000092
:020000040000fa
:0400c000ac0200008e
:020000040000fa
:0400c400ac0200008a
:020000040000fa
:0400c800ac02000086
:020000040000fa
:0400cc00ac02000082
:020000040000fa
:0400d000ac0200007e
:020000040000fa
:0400d400ac0200007a
:020000040000fa
:0400d800ac02000076
:020000040000fa
:0400dc00ac02000072
:020000040000fa
:0400e000ac0200006e
:020000040000fa
:0400e400ac0200006a
:020000040000fa
:0400e800ac02000066
:020000040000fa
:0400ec00ac02000062
:020000040000fa
:0400f000ac0200005e
:020000040000fa
:0400f400ac0200005a
:020000040000fa
:0400f800ac02000056
:020000040000fa
:0400fc00ac02000052
:020000040000fa
:04010000ac0200004d
:020000040000fa
:04010400ac02000049
:020000040000fa
:04010800ac02000045
:020000040000fa
:04010c00ac02000041
:020000040000fa
:04011000ac0200003d
:020000040000fa
:04011400ac02000039
:020000040000fa
:04011800ac02000035
:020000040000fa
:04011c00ac02000031
:020000040000fa
:04012000ac0200002d
:020000040000fa
:04012400ac02000029
:020000040000fa
:04012800ac02000025
:020000040000fa
:04012c00ac02000021
:020000040000fa
:04013000ac0200001d
:020000040000fa
:04013400ac02000019
:020000040000fa
:04013800ac02000015
:020000040000fa
:04013c00ac02000011
:020000040000fa
:04014000ac0200000d
:020000040000fa
:04014400ac02000009
:020000040000fa
:04014800ac02000005
:020000040000fa
:04014c00ac02000001
:020000040000fa
:04015000ac020000fd
:020000040000fa
:04015400ac020000f9
:020000040000fa
:04015800ac020000f5
:020000040000fa
:04015c00ac020000f1
:020000040000fa
:04020800ac02000044
:020000040000fa
:04020c00ac02000040
:020000040000fa
:04021000ac0200003c
:020000040000fa
:04021400ac02000038
:020000040000fa
:04021800ac02000034
:020000040000fa
:04021c00ac02000030
:020000040000fa
:04022000ac0200002c
:020000040000fa
:04022400ac02000028
:020000040000fa
:04022800ac02000024
:020000040000fa
:04022c00ac02000020
:020000040000fa
:04023000ac0200001c
:020000040000fa
:04023400ac02000018
:020000040000fa
:04023800ac02000014
:020000040000fa
:04023c00ac02000010
:020000040000fa
:04024000ac0200000c
:020000040000fa
:04024400ac02000008
:020000040000fa
:04024800ac02000004
:020000040000fa
:04024c00ac02000000
:020000040000fa
:04025000ac020000fc
:020000040000fa
:04025400ac020000f8
:020000040000fa
:04025800ac020000f4
:020000040000fa
:04025c00ac020000f0
:020000040000fa
:04026000ac020000ec
:020000040000fa
:04026400ac020000e8
:020000040000fa
:04026800ac020000e4
:020000040000fa
:04026c00ac020000e0
:020000040000fa
:04027000ac020000dc
:020000040000fa
:04027400ac020000d8
:020000040000fa
:04027800ac020000d4
:020000040000fa
:04027c00ac020000d0
:020000040000fa
:04028000ac020000cc
:020000040000fa
:04028400ac020000c8
:020000040000fa
:04028800ac020000c4
:020000040000fa
:04028c00ac020000c0
:020000040000fa
:04029000ac020000bc
:020000040000fa
:04029400ac020000b8
:020000040000fa
:04029800ac020000b4
:020000040000fa
:04029c00ac020000b0
:020000040000fa
:0402a000ac020000ac
:020000040000fa
:0402a400ac020000a8
:020000040000fa
:0402a800ac020000a4
:020000040000fa
:0402ac00ac020000a0
:020000040000fa
:0402b000ac0200009c
:020000040000fa
:0402b400ac02000098
:020000040000fa
:0402b800ac02000094
:020000040000fa
:0402bc00ac02000090
:020000040000fa
:0402c000ac0200008c
:020000040000fa
:0402c400ac02000088
:020000040000fa
:0402c800ac02000084
:020000040000fa
:0402cc00ac02000080
:020000040000fa
:0402d000ac0200007c
:020000040000fa
:0402d400ac02000078
:020000040000fa
:0402d800ac02000074
:020000040000fa
:0402dc00ac02000070
:020000040000fa
:0402e000ac0200006c
:020000040000fa
:0402e400ac02000068
:020000040000fa
:0402e800ac02000064
:020000040000fa
:0402ec00ac02000060
:020000040000fa
:0402f000ac0200005c
:020000040000fa
:0402f400ac02000058
:020000040000fa
:0402f800ac02000054
:020000040000fa
:0402fc00ac02000050
:020000040000fa
:04030000ac0200004b
:020000040000fa
:04030400ac02000047
:020000040000fa
:04030800ac02000043
:020000040000fa
:04030c00ac0200003f
:020000040000fa
:04031000ac0200003b
:020000040000fa
:04031400ac02000037
:020000040000fa
:04031800ac02000033
:020000040000fa
:04031c00ac0200002f
:020000040000fa
:04032000ac0200002b
:020000040000fa
:04032400ac02000027
:020000040000fa
:04032800ac02000023
:020000040000fa
:04032c00ac0200001f
:020000040000fa
:04033000ac0200001b
:020000040000fa
:04033400ac02000017
:020000040000fa
:04033800ac02000013
:020000040000fa
:04033c00ac0200000f
:020000040000fa
:04034000ac0200000b
:020000040000fa
:04034400ac02000007
:020000040000fa
:04034800ac02000003
:020000040000fa
:04034c00ac020000ff
:020000040000fa
:04035000ac020000fb
:020000040000fa
:04035400ac020000f7
:020000040000fa
:04035800ac020000f3
:020000040000fa
:04035c00ac020000ef
:020000040000fa
:100400004f8520000edf20000e0188000000000054
:10041000000020000000e000020032000001200087
:10042000200288000c000700404e2100010020003f
:1004300011000700000020000000e0000200320070
:1004400000000200000000009c13020000000000f9
:100450000040da000000fe004440a900e003200054
:100460000000e0000300320000002000a00188002e
:100470004440a80000000600910188008000780038
:100480000000eb0015003700e280400032a0b4000d
:100490009101ba00e280400032a0b4009102ba009b
:1004a000e280400032a0b4000002eb00472bde00e7
:1004b000f507b200602ce10004003a000059eb009f
:1004c0008301e900fdff3e00040037006128e100e0
:1004d000010032000082eb000b00070011c3ba00dc
:1004e0001101ba000604e00003003a000200e00037
:1004f000e5ff3a0000000600f607b200960188000a
:1005000082007800f5ff37003159ba008301e90015
:100510000c0032002159ba008301e90008003200c2
:100520000400e00003003a00e280400032a0b40082
:10053000f5ff370011d9ba008301e900faff3a004c
:100540008100e800e180400032a0b4000000060015
:1005500000000000000000000040da000000fe0083
:10056000839f68000100e00002003d006000100071
:10057000e08018000300e00002003d00600111006f
:10058000e0811900050007004f00e00002003b0079
:1005900060001000e0801800000006006022b80033
:1005a000060220000000d0008180d2000482d20028
:1005b0008582d2000000a0000202520083825a000d
:1005c000030031000202420083824a000000a100c1
:1005d0000603e900f3ff3a0000000600889fbe0012
:1005e0008a9fbe0030044200b0844a0030054b00b0
:1005f00090854b006000b1000898be000a90be00d4
:100600000440e10005c8e10006d0e10007d8e100a0
:1006100002003100680040001008e8004f05be00ed
:100620004f04be0000000600889fbe008a9fbe00e7
:100630003004be002005be000418540005985c007c
:1006400006185d0007985d00110020000440e100dd
:1006500005c8e10006d0e10007d8e100010039003b
:100660008000eb00108810004f05be004f04be0054
:10067000000006001200fa00889fbe008a9fbe009c
:100680008c9fbe00e0b79f00f1b79f0082bf9f0024
:1006900093bf9f000605be000404be000000eb00ef
:1006a000d0b79f00c0b79f00b0b79f00a0b79f0012
:1006b00090b79f000006eb005fb19700cfb09700a6
:1006c000820141003fb097000200e00004003d00bd
:1006d000370007007e805700c0ff07000300370087
:1006e000330007007e805700cfff0700dfb697007a
:1006f0000d00e0000c0035006fb29700ffb29700cc
:100700000fbb97009fbb9700100020000100200046
:100710006011b8000002720081827200020373004f
:10072000838373001b0007000c06e800010420000f
:10073000810f5600e0ff3a000d00e00004003d008c
:100740000802be000a03be007e805700a3ff070018
:100750005fa897000000e00005003a001fb2970074
:10076000afb297003fb39700cfb3970009000700df
:100770006fb09700ffb097000fb997009fb997002f
:100780004f06be004f05be004f04be000080fa00b9
:10079000000006000100070000000600a4b79f004b
:1007a000b5b79f00c6b79f00d7b79f0000000600ef
:1007b0004f09de0082817100b3b79f004f01de0058
:1007c0008180400082807000a1b79f008fb09700a9
:1007d0004f09de00000040000200700090b79f004b
:1007e0007fa897004f01de0081804000828070006a
:1007f00081b79f000d0007004f3ade000000400067
:1008000004007000f0af9f000800070004024200df
:1008100085824a0006034b0087834b00dfff0700f9
:100820000802be000a03be00000006002fb29700b7
:10083000bfb297004fb39700dfb3970000000600e8
:10084000881f780018002000881f780089ff0700a3
:100850008f87e9004f04780000000600801feb003e
:1008600084ff07008f87e90000000600889fbe0014
:100870008a9fbe00e00f5000e08f5800e00f590043
:10088000e08f59000c003d006044b8006055b8008e
:100890000000540081805c0002015d0083815d00e6
:1008a000180020001500070008003d001800070090
:1008b0000004eb00050037000004eb000f00070008
:1008c00002003d001200070018002000dcff0700b6
:1008d0000800e000060032006022b8006033b80073
:1008e0000000520081805a0002015b0083815b009e
:1008f0004f05be004f04be0000000600e00f52008e
:10090000e08f5a00e00f5b00e08f5b000000060004
:100910006044b8006055b8000402540085825c0051
:1009200006035d0087835d0000000600889fbe000f
:100930008a9fbe008c1f7800e00f5000e08f5800a7
:10094000e00f5900e08f59000d003d006044b800f1
:100950006055b8000000540081805c0002015d0019
:1009600083815d001c0020000820e10009a8e1004f
:100970000ab0e1000bb8e1000d003d0008003700af
:100980000006eb00e00f5200e08f5a00e00f5b0022
:10099000e08f5b0006003d006044b8006055b80081
:1009a0000402540085825c0006035d0087835d00bd
:1009b000aaff07000c00e000060032006022b80029
:1009c0006033b8000000520081805a0002015b00d1
:1009d00083815b004f0678004f05be004f04be00c8
:1009e00000000600881f78000204780008017800e3
:1009f000cc010700080040004f047800000006000a
:100a00000000fa00881f780000047800ea8157008f
:100a10003fb9970088007800204f200007000700aa
:100a20000000e000020035008040eb000174780017
:100a30004f0478000080fa00000006006200fa000f
:100a4000889fbe008a1f7800000578008104780026
:100a5000020478008300780080f92f000f00400026
:100a6000ae0307009a979f00a9979f000000eb0034
:100a7000b09f9f001885fb008a04fb000a05ea006e
:100a80004f55de0050022000808f54000d003200d0
:100a9000e10f55000b003a000a0178008800780049
:100aa0002f9097009f91970003000100a0979f004f
:100ab0000000e0008e0032003f9897000000e80040
:100ac000b09f9f000a04440050022000808f540011
:100ad000040032000900e000e6ff3a003f9897006a
:100ae000840037000000eb00909f9f00809f9f00d4
:100af000f0979f00e0979f00d0979f00c0979f00be
:100b000007003700e1842000010050000000400091
:100b10002184200061007800df98970001007000b8
:100b2000d09f9f0088047800090478003845780039
:100b30008a00fb00e0842000810107000000e00043
:100b4000f0ff3a00a1c2b300814f55000e003a00f9
:100b5000cf8897000180e900c08f9f0010007800c7
:100b6000c09f9f000000e00005003d000000ea007b
:100b7000c09f9f005f9897000020a000d09f9f001b
:100b80000904e8000f003700c09f9f000000eb0041
:100b900005003700f2ff2700820f500002003200ec
:100ba0006a01b900028040000904780088047800d6
:100bb000b900fb000103b100e98f5000f5ff3600da
:100bc000c09f9f00e0c2b300984f100002003200a7
:100bd0000080eb0019003700a0c2b300d84f10000e
:100be00007003a00cf8897000180e900c08f9f007e
:100bf00010007800a09f9f000804e8001000370054
:100c00000000eb00a09f9f008800780005003700df
:100c1000f3ff2700830f5000020032006a02b90080
:100c20000400410001047800880078003101fb00d5
:100c30000203b100e90f5100f5ff3600a09f9f00ad
:100c4000984478008900fb00a08320003c01070045
:100c50000000e000020032000804e8000100370054
:100c60008044eb00c97f9f0080c6b30080cf540052
:100c700004003a0098cf14000a003a006640500081
:100c800006003700c0c6b30080cf540005003a000c
:100c900098cf140003003a0065404000c07f9f00d9
:100ca0000804e8001801fb00e3fb2f008f814100de
:100cb00081f92f008f804000a0f92f000f00400025
:100cc000100007000000e00009003a00e1fb2f00df
:100cd0008f804000a0f92f000f0040005302070052
:100ce0000000e000020035000804e80061ff370062
:100cf0000080eb004f0578004f04be000080fa0032
:100d000000000600881f7800e4c6b300844f51003d
:100d1000b600320010003c006b425200844f51007c
:100d20001800320005003c0054c2b300844f51004b
:100d3000ee00320084c5b3000f00370044c6b30094
:100d4000844f51001400320065424200844f51002c
:100d5000e9003a001000370004c7b300844f510087
:100d6000d50032005300350065424200844f5100e7
:100d70005000320063424200844f5100de003a00ce
:100d80004c0037001181e90082087800f0009000e3
:100d900012417800d600370020629000c5c6b3002b
:100da000854f520007003a00910278006482520099
:100db000840878001402be004fabde008603780082
:100dc0001100370015c7b300854f520003003200f1
:100dd000a5c6b300854f520006003a009102780084
:100de00068825200840878005403be004402be00aa
:100df000050037001182e9008408780014027800a9
:100e0000cfa2de00612bb9000498be000690be00a0
:100e1000a060900088c6b30088cf50000d0032005b
:100e200028c6b30088cf500004003a000402fb003b
:100e3000cfa2de00612bb9000800370048c7b3001d
:100e400088cf5000030032006644440088cf500031
:100e500004003a00cfa2de00612bb9000498be0066
:100e60000690be003002be002003be00f0009000dd
:100e7000e00f5200e08f5a00e00f5b00e08f5b0054
:100e800002003d00d4c2b3000800370000129000f9
:100e90000418a30002003200b4c2b30003003700fc
:100ea0000408a3004c00320004c2b30084f17800af
:100eb0004700370020629000c5c6b300854f52003e
:100ec00006003a009102780064825200840878009b
:100ed0001402be006033b8001100370015c7b3001c
:100ee000854f520003003200a5c6b300854f520063
:100ef00006003a0091027800688252008408780067
:100f00005403be004402be00050037001182e90010
:100f100084087800140278008002eb006033b80087
:100f20000498be000690be00a060900088c6b30082
:100f300088cf50000d00320028c6b30088cf500083
:100f400004003a000482fb008002eb006033b8002a
:100f50000800370048c7b30088cf500003003200b4
:100f60006644440088cf500004003a008002eb0041
:100f70006033b8000498be000690be008010900058
:100f80000138a300140032003002be002003be006e
:100f9000e00f5200e08f5a00e00f5b00e08f5b0033
:100fa0000d00320081c7b300814f510003003200b1
:100fb00081c5b300814f510007003a00f000900056
:100fc00004c3b30084f178008100e80082f1780066
:100fd0008100e80071009800f000900081814100dc
:100fe00063009800824078003e003700a0619000c6
:100ff000c4c6b3001181e90084cf51002200320041
:101000000a003c006442520084cf510025003200a7
:1010100004c2e80084cf510013003200684252003d
:1010200084cf51001e003a000a00370044c7b300c5
:1010300084cf51001b0032006642420084cf510031
:10104000180032006942520084cf510014003a0067
:101050000500370082087800920078004058900020
:10106000804878002c0037008208780092007800d1
:10107000600a9000cfa2de00612bb9008498be0008
:101080008690be0024003700820878009200780025
:1010900060099000cf91de008288be001e003700fc
:1010a0001181e900820878009200780060089000c1
:1010b00080087800180037001181e9008208780064
:1010c00012027800cfa2de00612bb9000498be00a6
:1010d0000690be00f00090008181410063009800fe
:1010e00081c7b300220007000b003700f00090001a
:1010f00082f1780006003700f00090008181410005
:101100000204e00001003a0052c2b30082497800b4
:101110008100e800710098000000eb004f047800a7
:10112000000006008001780002003700b159780005
:101130000201e9000200e000fcff3a0000000600a6
:10114000020037000304e0000600320000017800ce
:1011500002007800b041780081cf5100f9ff3a00d9
:10116000010037000001eb000200780000000600db
:10117000fc874700889fbe008a9fbe008c9fbe00f0
:101180008e1f78000006780080c5b30080cf500025
:101190000a0032007740400080cf50000a00320041
:1011a0006940400080cf50000b0032009082200048
:1011b00080bf9f00ae0020000a003700828120001f
:1011c00082bf9f00060037009382200083bf9f00ec
:1011d0008e002000030037009482200084bf9f000f
:1011e0000e0120003c02be002c03be000605be001e
:1011f0000404be0040c6b30080cf5000030032009c
:101200006540400080cf50000b003a00e00f5200d4
:10121000e08f5a00e00f5b00e08f5b0006003d00ae
:101220006000b8006011b8000404500085845800c4
:101230000605590087855900e80f57000400320061
:1012400040002000f00f570038003a00010037003e
:1012500030002000e00f5400e08f5c00e00f5d00e4
:10126000e08f5d0004003a00dc0890008d01200052
:101270000100e000060032008e00e9008880600076
:101280008fba9700e5c07800f1ef9f007d01200044
:10129000800078008100e900050033008b05d10053
:1012a0000a85d3008984d3000884d300f9ff37006e
:1012b000089ebe000a96be00120037008d06e900a7
:1012c0008e00e900848060000fb99700e2c17800c9
:1012d00082fd2f000f01410003f17e0080007800a5
:1012e0008100e900050033008783d1000683d30025
:1012f0008582d3000482d300f9ff3700049ebe002c
:101300000696be003c02be002c03be00e00f520059
:10131000e08f5a00e00f5b00e08f5b008b00340031
:101320000d00e000e5ff3c00880037002c609000d5
:1013300081c6b300814f50000b00320006003c0014
:101340000004e00008003200e6c05000814f500069
:101350004e003a0004003700c1c6b300814f500070
:101360004a003a00210037000800e00004003a007b
:101370005c0890008d0120000000e00006003200b3
:10138000110009000e84d8000fb99700e2c0780060
:10139000f1ef9f007d012000110009000e84d800ac
:1013a0000a003700110009000e04d8008d06e9007c
:1013b0000e81b900020454008fb8970061417c008f
:1013c00081fd2f008f80400082f07e0000047800b5
:1013d0000800e000020032000d00e000f1ff3c00d8
:1013e000cfc4de00614db90025003700e00f540086
:1013f000e08f5c0004003a005c0890008d01200042
:101400000000e000070032006171b9000800be0072
:10141000440107008fb99700e3417800f3ef9f0084
:101420007d0120006171b9000800be005bfc07006f
:101430000b0037006171b9000800be0048fc0700ce
:101440008d06e90000f1b900020454000fba9700bc
:10145000e4427c0084fd2f000f02420005f27e0072
:101460000004be00e00f5000e08f58000200320080
:101470000d00e000efff3c004fcdde008a05780054
:10148000089ebe000a96be0030003700e00f5400f0
:10149000e08f5c00e00f5d00e08f5d0004003a002b
:1014a0005c0890008d0120000000e000090032007f
:1014b0006172b900612bb9000800be000a01be00cc
:1014c000e6fc07000fba970064427800f4ef9f0033
:1014d0007d0120006172b900612bb9000800be00d7
:1014e0000a01be00d6fc07000d0037006172b9008a
:1014f000612bb9000800be000a01be00dbfc07003a
:101500008d06e90000f2b900040454008fba970078
:1015100065427c0085fd2f008f82420084f27e00b0
:10152000009ebe000296be003c04be002c05be001c
:10153000e00f5400e08f5c00e00f5d00e08f5d0085
:10154000020034000d00e000e8ff3c00e80f570007
:1015500010003a000c1090000038a3000d0032007b
:10156000f78f560006003e0085fd2f008f82420057
:10157000e5c07e0000c3b30080cf500005003200fc
:101580008d06e90002c3b30081fd2f008f8040006b
:1015900082f07e0078811600120e98006c00900098
:1015a00083fd2f008f8141008d804100ddfe07000b
:1015b0001c089000dc089000810f500006003d00e0
:1015c00000805000000e98000c1090000040a10018
:1015d000001698000f0037000100e0000d003d00ec
:1015e0008c109000f4806000f08f500009003a00e9
:1015f0007c099000fc009000810051000c099000d3
:1016000082805000008050004240a9000100340058
:10161000000e98004f0778004f06be004f05be0031
:101620004f04be00cf01b100000006000400fa0024
:10163000889fbe008a9fbe008c1f7800000478003f
:1016400001067800f80d9000780090008085550024
:101650000808900080855500180890008085550086
:101660002808900080855500380890008085550036
:1016700048089000808555000002220090bf9f001e
:1016800000032300a0bf9f00081090000028a300c3
:1016900015003a000b00e000130034000b05780041
:1016a0008a047800e20f550001003600290020006e
:1016b000c801900009017800ee80570058009000a2
:1016c00003000100500498000000e0008c0032008c
:1016d0006808900009004000600c9800090555005a
:1016e0004240a900eeff3c00780190000200e000bb
:1016f0000c003400c80190008c0078005800900065
:1017000003000100500498008080eb000000e0001e
:101710007c003200e80890007800900000804000d3
:10172000600c9800880c90000900e0001100340063
:1017300009057800e28f5400010036002a002000dd
:10174000c80190000a017800ec8057005800900012
:1017500003000100500498000000e000680032001f
:10176000680890000a004000600c98008a845400c9
:10177000edff3700180990000200e0000c00340073
:10178000c8019000e800900058009000030001009c
:10179000500498008080eb000000e0005900320007
:1017a000e80890001808900000804000600c980045
:1017b000a80c90000900e000110034000905780031
:1017c000e28f5400010036002a002000c80190007a
:1017d0000a017800ec8057005800900003000100d7
:1017e000500498000000e0004500320068089000b6
:1017f0000a004000600c98008a845400edff370016
:10180000380990000200e0000e003400e80090006b
:101810001808900080804000c80190005800900097
:1018200003000100500498008080eb000000e000fd
:1018300034003200e8089000380890000080400032
:10184000600c9800c80c90000900e0001100340002
:1018500009057800e28f5400010036002a002000bc
:10186000c80190000a017800ec80570058009000f1
:1018700003000100500498000000e0002000320046
:10188000680890000a004000600c98008a845400a8
:10189000edff3700081090008000eb000028a30047
:1018a000180032000b00e000160034008b047800b2
:1018b00009057800e28f5400010036002a0020005c
:1018c000c80190000a017800ee805700580090008f
:1018d00003000100500498000000e00008003200fe
:1018e000680890000a004000600c98008a84540048
:1018f0004240a900eeff3c008000eb0001003700f1
:101900008080eb00010078004f0678004f05be0094
:101910004f04be000080fa000000060001087800b5
:10192000000006001dfb07000400be0000000600ca
:020000040000fa
:10193000546500006d700000657200006174000065
:1019400075720000653a0000202500006420000048
:10195000436500006c73000069750000732000008f
:10196000256300002563000000410000697200004b
:101970002050000072650000737300007572000053
:10198000653a000020250000642000006d69000019
:101990006c6c00006962000061720000732000003e
:0c19a0002563000025630000000000002b
:020000040000fa
:1019ac000200fa00700220002010880007e2a90053
:1019bc000722a8008620a90007e2a80000108000da
:1019cc00000f7800340007000080fa0000000600c9
:1019dc000200fa000000eb00000f78000622a800bd
:1019ec00070037004000200001002000120407000f
:1019fc001e0fe8001e007800f40f500005003c009c
:101a0c0030108000620060000000e000f5ff3a003a
:101a1c0001003700000000008000200001002000c1
:101a2c00050407000080fa00000006000200fa001e
:101a3c000000eb00000f780006a2a9008002200035
:101a4c0001002000fc0307000602a8000700370075
:101a5c004000200001002000f70307001e0fe800e3
:101a6c001e007800f40f500005003c003010800080
:101a7c00610060000000e000f5ff3a000100370053
:101a8c00000000008000200001002000ea03070095
:101a9c000080fa00000006000200fa000000eb00d3
:101aac00000f78000642a800070037004000200015
:101abc0001002000e00307001e0fe8001e00780064
:101acc00f40f500005003c003010800064006000f2
:101adc000000e000f5ff3a000100370000000000b4
:101aec000662a9008620a90008e2a9000942a90003
:101afc008002200001002000cf0307000080fa00c4
:101b0c00000006000400fa00100798000000000016
:101b1c0040108000610060000000e000fcff3a0013
:101b2c008620a9001e009000101088000000eb0019
:101b3c00000f7800090037004110800000002400dd
:101b4c00008060000000e00009003200400020002e
:101b5c0001002000b80307001e0fe800301f200012
:101b6c009e007800808f5000f3ff34000100370096
:101b7c0000000000401f20009e007800808f500065
:101b8c0002003a0010c0b3000c0037004110800076
:101b9c0000002800008060000000e000030032001c
:101bac00bdff070010c0b300040037008000200008
:101bbc0001002000a00307000040eb000080fa00a9
:101bcc00000006000400fa000000eb00000f780093
:101bdc000040eb00204798000662a8000500370083
:101bec001e0fe800007d20009e007800808f5000c2
:101bfc0005003c0040108000620060000000e00026
:101c0c00f7ff3200010037000000000000108000d8
:101c1c00204798002e4090000080fa00000006003b
:101c2c000400fa000000eb00000f78000040eb000d
:101c3c00204798000662a800050037001e0fe80038
:101c4c00007d20009e007800808f500005003c0035
:101c5c0040108000620060000000e000f7ff3200de
:101c6c0001003700000000000010800020479800a1
:101c7c000682a80080022000010020006e030700ed
:101c8c002e4090000080fa00000006000400fa00cc
:101c9c00204798000040eb00004f780063ff0700de
:101cac002e4090000000fb0096ff0700004f7800cc
:101cbc0079ff07001e4078000080fa000000060043
:101ccc000600fa0020479800210798008e00780043
:101cdc002e409000060007001e007800800078005f
:101cec002e009000010878000080fa000000060029
:101cfc000400fa00004f7800110798001e009000b5
:101d0c00800078001e4078000d0007000080fa006b
:101d1c00000006000800fa004047980031079800c0
:101d2c008e0078004e409000050007001e00be009b
:101d3c003e0190000089be000080fa000000060001
:101d4c000400fa00889fbe00004f7800110798002d
:101d5c0036ff0700e00e20006aff07001e00fb00a4
:101d6c0068ff07001aff0700f00e200065ff070050
:101d7c00abff07000000fb00cf80de001e019000cf
:101d8c000089be001e0090001000be00480cdd0053
:101d9c00c804de00890474004804dd0089ff0700d4
:101dac000000fb00cf80de00080040008980480066
:101dbc001e0190000089be0037ff07004f04be00d3
:101dcc000080fa00000006000400fa00004f7800c2
:101ddc001107980015ff0700e00e200049ff0700cf
:101dec001e00fb0047ff0700f9fe0700f00e200065
:101dfc0044ff070073ff0700804078001e0090002e
:101e0c000148780024ff07000080fa00000006005b
:101e1c001600fa00200f9800af010700008fbe00db
:101e2c002e089000500090008000eb003e01100046
:101e3c00ae8118002e089000400090008000eb004e
:101e4c00009ab90004027800028bb900860278006f
:101e5c00050242000010b800010242008400780024
:101e6c004109dd004f00de0000007100cf88de006c
:101e7c0020079800310798002e0890001008900059
:101e8c00cf80de004b0add00c502de008502720049
:101e9c004b02dd002e089000200890006101b90073
:101eac002e009000be00900002004000838048008d
:101ebc000001be000400be00a6f907004007980010
:101ecc00510798002e019000be0190004e0090002a
:101edc00de009000020040008380480060079800fc
:101eec00710798006e009000fe00900068004000a2
:101efc00e08048004c09dd004400de000000710069
:101f0c00c488de00000f9800110f98000e08900096
:101f1c009e0890000080fa00000006002e00fa00d7
:101f2c00601798006c010700200798003107980093
:101f3c007b01070040079800510798006e10900035
:101f4c00500090008000eb002e019000be0190002c
:101f5c0000015100818159006e10900040009000ea
:101f6c008000eb00009ab90004027800028bb900e3
:101f7c0086027800050242000010b80001024200ff
:101f8c00840078004109dd004f00de000000710084
:101f9c00cf88de0060079800710798006e109000e3
:101fac0010089000cf80de004b0add00c502de0079
:101fbc00850272004b02dd006e109000200890002c
:101fcc006101b9006e009000fe009000020040001c
:101fdc00838048000001be000400be005df90700cc
:101fec00000f9800110f98006e019000fe019000f8
:101ffc000e0890009e08900002004000838048006c
:10200c00200f9800310f98002e099000be09900007
:10201c0000062f00f1ff2f000200400083804800d3
:10202c00400f9800510f98006e10900070009000b7
:10203c006101b900de0890004e0890000088b900dc
:10204c0000027800de0890004e0890000088b9006d
:10205c000000780000024200ce0890004e0890006c
:10206c000008b8000102420084007800440add0038
:10207c004c00de0000007200cc88de00009ab90033
:10208c0004027800028bb900860278000502420037
:10209c000010b80001024200840078004509dd0000
:1020ac004b00de0000007100cb88de00600798005a
:1020bc00710798006e10900010009000cf80de0029
:1020cc004e0990000191b90002017800de099000e0
:1020dc00009ab9008401780003014100ce099000f8
:1020ec000018b8000101410082007800450add00ab
:1020fc004b00de0000007200cb88de00000f980061
:10210c00110f98006e019000fe0190000e089000d7
:10211c009e0890000200400083804800600f9800e9
:10212c00710f98006e10900010007800cf80de00c8
:10213c004209dd00ce01de00830171004201dd00a9
:10214c006e089000fe08900002004000838048005a
:10215c0062004000e0804800e00f5000e08f580023
:10216c0002003d0063004000e08048004e09dd00a5
:10217c004200de0000007100c288de0000179800eb
:10218c00111798006e10900020009000cf80de0098
:10219c004e0990000191b90002017800de0990000f
:1021ac00009ab9008401780003014100ce09900027
:1021bc000018b8000101410082007800430add00dc
:1021cc004d00de0000007200cd88de006007980034
:1021dc00710798006e109000600090006101b900ca
:1021ec00de0890004e0890000088b90000027800cc
:1021fc00de0890004e0890000088b90000007800be
:10220c0000024200ce0890004e0890000008b80072
:10221c000102420084007800440add004c00de001c
:10222c0000007200cc88de00009ab900040278002d
:10223c00028bb90086027800050242000010b8003b
:10224c0001024200840078004088de00cf80de006e
:10225c00000f9800110f98006e019000fe01900085
:10226c000e0890009e0890000200400083804800f9
:10227c0062004000e0804800e00f5000e08f580002
:10228c0002003d0063004000e08048004e09dd0084
:10229c004200de0000007100c288de00600f980072
:1022ac00710f98006e109000300090006101b80022
:1022bc006e0a9000fe0a9000000028000100200029
:1022cc000400400085804800009ab90004027800a0
:1022dc00028bb90086027800050242000010b8009b
:1022ec000102420084007800410add004f00de004c
:1022fc0000007200cf08de002017980031179800fc
:10230c004e019000de0190000e1090009e10900087
:10231c00000051008180590002352c000289b9005f
:10232c00020178006002b9008401780003014100c9
:10233c0003352c000300b800010141008200780035
:10234c0040179800511798004017980051179800a3
:10235c004e109000de109000e00f5000e08f5800ff
:10236c00090035004e109000de1090000000400077
:10237c00818048002e119000be11900084f8070057
:10238c00008fbe00080037002e119000be11900087
:10239c004e109000de1090007df807000000400009
:1023ac0081804800008fbe001e00be00c889de0080
:1023bc00480add004801de00020172001e00be006a
:1023cc00480add004800de0000007200c888de000c
:1023dc00009ab90004027800028bb90086027800da
:1023ec00050242000010b80001024200840078008f
:1023fc0060079800710798006007980071079800b3
:10240c00fe009000e0bd20000088b90000017800bb
:10241c006e0090006000b9000000780000014100df
:10242c00ee009000e0bd20000008b8000101410062
:10243c00820078004088de00cf80de0060079800c4
:10244c00710798009e00900030342e000088b9006f
:10245c00000178009e0078000080eb000088b90035
:10246c0000007800000141009e00780030342e00fe
:10247c000008b80001014100820078004088de00ad
:10248c00cf80de00000f9800110f98006e019000b5
:10249c00fe0190000e0890009e0890000201400082
:1024ac0083814800f0ec2000010020000200400075
:1024bc00838048004c09dd004400de000000710000
:1024cc00c488de001e0f40005e9748001e00be0050
:1024dc000080fa00000006000400fa0053fd07001b
:1024ec00e00e200087fd0700400f200085fd07004f
:1024fc00e002200083fd070067fd07000065240053
:10250c00010020004c0107008e00780060cfb30062
:10251c0000fe07001e00be000080fa00000006004e
:10252c000400fa0041fd0700e00e200075fd0700d5
:10253c00400f200073fd07004003200071fd0700d1
:10254c0055fd070000e22400010020003a010700bd
:10255c008e00780060cfb3003c0007001e00be0068
:10256c000080fa00000006000200fa00000f78005c
:10257c001e00780080007800a0cab300d0fd0700d0
:10258c001e80e80080007800c0cab300ccfd0700b4
:10259c009e0078006480400080007800e0cab300a0
:1025ac00c7fd07009e007800668040008000780020
:1025bc0000cbb300cefd07009e0078006880400081
:1025cc008000780020cbb300c9fd07009e00780086
:1025dc006a8040008000780040cbb300c4fd070047
:1025ec009e0078006c8040008000780060cbb300c7
:1025fc00b3fd07009e0078006e80400080007800dc
:10260c0080cbb300aefd07009e00780070804000c8
:10261c0080007800a0cbb300a9fd07009e007800d5
:10262c007280400080007800c0cbb300a4fd07008e
:10263c009e0078007480400080007800e0cbb300ee
:10264c009ffd07000080fa00000006000800fa0059
:10265c0040479800310798008e0078004e4090005b
:10266c00050007001e00be003e0190000089be0060
:10267c000080fa00000006000800fa0040479800ad
:10268c0031079800e9fc0700e00e20001dfd070053
:10269c004e4090000000fb001afd0700ccfc070028
:1026ac00f00e200017fd07005dfd0700004f7800bd
:1026bc005bfd07001047980059fd07002047980064
:1026cc001e80fb008000eb00c001dd00020020003a
:1026dc001e4090000082fb008002eb004828dd00c9
:1026ec00c820de00810070004820dd00020140009f
:1026fc00838148002e4090000080fb008000eb009e
:10270c0002004000838048004809dd004800de00dc
:10271c0000007100c808de003e0190000089be0078
:10272c00ddfc07000080fa0000000600ec00fa0057
:10273c00610d2000010f47006000b80010079800e1
:10274c00210798006000b8003007980041079800f6
:10275c00c822a8000080eb00601988005400070014
:10276c008ffc0700005822005900070003003700b7
:10277c00e0ceb30045fd070000e8b70000c8bf007d
:10278c00e14f5000faff32001e00780076ff070080
:10279c0000d0270001002000a70007001e007800d1
:1027ac009bfd070010079800210798001e00780079
:1027bc00dafd070030079800410798001e009000d2
:1027cc00ae009000a20020000300200061f707007b
:1027dc0010079800210798003e009000ce00900052
:1027ec0042062000030020005af70700300798002b
:1027fc0041079800d0c0b300204f9800a0c0b30090
:10280c00304f98003e4890008001fb002e4890000d
:10281c000001fb009e0090006d004700831f7800b4
:10282c00821f7800811f780081c92800811f7800e1
:10283c0070f80700e88757003e4890008001fb00c5
:10284c002e4890000001fb00be00900010072000f5
:10285c000e004000831f7800821f7800811f7800d3
:10286c0051cb2800811f780062f80700e8875700d9
:10287c00010037000000000036000700404f9800b0
:10288c00ce48900040c7b30080cf5000f9ff3a000b
:10289c006d0047003a000700100720000e004000b2
:1028ac00370007000040eb00404f9800f2ff370064
:1028bc000000fa00007a2700103a8800000024007b
:1028cc00203a88004827ef000080fa00000006003c
:1028dc000200fa00000f78001e0078008000eb0068
:1028ec006011b8000203be000002be0000092d00fa
:1028fc00310020006011b800cef70700000078000e
:10290c000000e900c011880031e2a9003022ef007c
:10291c003222ef0031e2a8003342a8000080fa0016
:10292c00000006000200fa00004f780000000000d2
:10293c009111800000202000008060000000e00069
:10294c00fbff3a001e00fb00a01188000080fa007b
:10295c00000006000200fa00000000009011800048
:10296c00610060000000e000fcff3200b01180004c
:10297c00004f78001e4078000080fa00000006002e
:10298c000400fa00100798001e0090001040780018
:10299c00e4ff07001e009000104f78001e0090000e
:1029ac000000e800100798001e407800ea4f500025
:0c29bc00f5ff3a000080fa000000060061
:020000040000fa
:1029c8000008000018000000000000003a0800009d
:1029d8001a00000002000000686a6c00747a4c005b
:1029e80000000100000200000400080000100000c0
:1029f800000020002b2d23003000000018080000e4
:102a0800220000000200000030313200333435006b
:102a1800363738003941420043444500460030000b
:102a2800313233003435360037383900616263009b
:0c2a380064656600000000003e15800090
:020000040000fa
:102a4400f03fb1000180b10006003500ee0309003b
:102a540000000000403fb1000180b100fbff3d00d9
:102a64001000b000203fb0000200350000800900d3
:082a7400000000000000060054
:020000040000fa
:042a7c000000000056
:020000040000fa
:0200000401f009
:04000000ffff0000fe
:020000040000fa
:0200000401f009
:04000800ffff0000f6
:020000040000fa
:0200000401f009
:04000c008700000069
:020000040000fa
:0200000401f009
:04001000bf0000002d
:020000040000fa
:0200000401f009
:040014005f00000089
:020000040000fa
:0200000401f009
:04001800f3000000f1
:020000040000fa
:0200000401f009
:04001c00c20000001e
:020000040000fa
:0200000401f009
:040020003f0000009d
:00000001FF
